{
  "contractName": "PunchyToken",
  "abi": [
    {
      "inputs": [
        {
          "internalType": "address",
          "name": "advisorsAddr",
          "type": "address"
        },
        {
          "internalType": "address",
          "name": "teamAddr",
          "type": "address"
        },
        {
          "internalType": "address",
          "name": "privateSaleAddr",
          "type": "address"
        },
        {
          "internalType": "address",
          "name": "presaleddr",
          "type": "address"
        },
        {
          "internalType": "address",
          "name": "IDOAddr",
          "type": "address"
        },
        {
          "internalType": "address",
          "name": "CEXAddr",
          "type": "address"
        },
        {
          "internalType": "address",
          "name": "punchwordTreasuryAddr",
          "type": "address"
        },
        {
          "internalType": "address",
          "name": "giveawaysAddr",
          "type": "address"
        }
      ],
      "stateMutability": "nonpayable",
      "type": "constructor"
    },
    {
      "anonymous": false,
      "inputs": [
        {
          "indexed": true,
          "internalType": "address",
          "name": "owner",
          "type": "address"
        },
        {
          "indexed": true,
          "internalType": "address",
          "name": "spender",
          "type": "address"
        },
        {
          "indexed": false,
          "internalType": "uint256",
          "name": "value",
          "type": "uint256"
        }
      ],
      "name": "Approval",
      "type": "event"
    },
    {
      "anonymous": false,
      "inputs": [
        {
          "indexed": true,
          "internalType": "address",
          "name": "previousOwner",
          "type": "address"
        },
        {
          "indexed": true,
          "internalType": "address",
          "name": "newOwner",
          "type": "address"
        }
      ],
      "name": "OwnershipTransferred",
      "type": "event"
    },
    {
      "anonymous": false,
      "inputs": [
        {
          "indexed": false,
          "internalType": "address",
          "name": "account",
          "type": "address"
        }
      ],
      "name": "Paused",
      "type": "event"
    },
    {
      "anonymous": false,
      "inputs": [
        {
          "indexed": true,
          "internalType": "address",
          "name": "from",
          "type": "address"
        },
        {
          "indexed": true,
          "internalType": "address",
          "name": "to",
          "type": "address"
        },
        {
          "indexed": false,
          "internalType": "uint256",
          "name": "value",
          "type": "uint256"
        }
      ],
      "name": "Transfer",
      "type": "event"
    },
    {
      "anonymous": false,
      "inputs": [
        {
          "indexed": false,
          "internalType": "address",
          "name": "account",
          "type": "address"
        }
      ],
      "name": "Unpaused",
      "type": "event"
    },
    {
      "inputs": [
        {
          "internalType": "address",
          "name": "owner",
          "type": "address"
        },
        {
          "internalType": "address",
          "name": "spender",
          "type": "address"
        }
      ],
      "name": "allowance",
      "outputs": [
        {
          "internalType": "uint256",
          "name": "",
          "type": "uint256"
        }
      ],
      "stateMutability": "view",
      "type": "function",
      "constant": true
    },
    {
      "inputs": [
        {
          "internalType": "address",
          "name": "spender",
          "type": "address"
        },
        {
          "internalType": "uint256",
          "name": "amount",
          "type": "uint256"
        }
      ],
      "name": "approve",
      "outputs": [
        {
          "internalType": "bool",
          "name": "",
          "type": "bool"
        }
      ],
      "stateMutability": "nonpayable",
      "type": "function"
    },
    {
      "inputs": [
        {
          "internalType": "address",
          "name": "account",
          "type": "address"
        }
      ],
      "name": "balanceOf",
      "outputs": [
        {
          "internalType": "uint256",
          "name": "",
          "type": "uint256"
        }
      ],
      "stateMutability": "view",
      "type": "function",
      "constant": true
    },
    {
      "inputs": [],
      "name": "decimals",
      "outputs": [
        {
          "internalType": "uint8",
          "name": "",
          "type": "uint8"
        }
      ],
      "stateMutability": "view",
      "type": "function",
      "constant": true
    },
    {
      "inputs": [
        {
          "internalType": "address",
          "name": "spender",
          "type": "address"
        },
        {
          "internalType": "uint256",
          "name": "subtractedValue",
          "type": "uint256"
        }
      ],
      "name": "decreaseAllowance",
      "outputs": [
        {
          "internalType": "bool",
          "name": "",
          "type": "bool"
        }
      ],
      "stateMutability": "nonpayable",
      "type": "function"
    },
    {
      "inputs": [
        {
          "internalType": "address",
          "name": "spender",
          "type": "address"
        },
        {
          "internalType": "uint256",
          "name": "addedValue",
          "type": "uint256"
        }
      ],
      "name": "increaseAllowance",
      "outputs": [
        {
          "internalType": "bool",
          "name": "",
          "type": "bool"
        }
      ],
      "stateMutability": "nonpayable",
      "type": "function"
    },
    {
      "inputs": [],
      "name": "name",
      "outputs": [
        {
          "internalType": "string",
          "name": "",
          "type": "string"
        }
      ],
      "stateMutability": "view",
      "type": "function",
      "constant": true
    },
    {
      "inputs": [],
      "name": "owner",
      "outputs": [
        {
          "internalType": "address",
          "name": "",
          "type": "address"
        }
      ],
      "stateMutability": "view",
      "type": "function",
      "constant": true
    },
    {
      "inputs": [],
      "name": "paused",
      "outputs": [
        {
          "internalType": "bool",
          "name": "",
          "type": "bool"
        }
      ],
      "stateMutability": "view",
      "type": "function",
      "constant": true
    },
    {
      "inputs": [],
      "name": "renounceOwnership",
      "outputs": [],
      "stateMutability": "nonpayable",
      "type": "function"
    },
    {
      "inputs": [],
      "name": "symbol",
      "outputs": [
        {
          "internalType": "string",
          "name": "",
          "type": "string"
        }
      ],
      "stateMutability": "view",
      "type": "function",
      "constant": true
    },
    {
      "inputs": [],
      "name": "totalSupply",
      "outputs": [
        {
          "internalType": "uint256",
          "name": "",
          "type": "uint256"
        }
      ],
      "stateMutability": "view",
      "type": "function",
      "constant": true
    },
    {
      "inputs": [
        {
          "internalType": "address",
          "name": "recipient",
          "type": "address"
        },
        {
          "internalType": "uint256",
          "name": "amount",
          "type": "uint256"
        }
      ],
      "name": "transfer",
      "outputs": [
        {
          "internalType": "bool",
          "name": "",
          "type": "bool"
        }
      ],
      "stateMutability": "nonpayable",
      "type": "function"
    },
    {
      "inputs": [
        {
          "internalType": "address",
          "name": "sender",
          "type": "address"
        },
        {
          "internalType": "address",
          "name": "recipient",
          "type": "address"
        },
        {
          "internalType": "uint256",
          "name": "amount",
          "type": "uint256"
        }
      ],
      "name": "transferFrom",
      "outputs": [
        {
          "internalType": "bool",
          "name": "",
          "type": "bool"
        }
      ],
      "stateMutability": "nonpayable",
      "type": "function"
    },
    {
      "inputs": [
        {
          "internalType": "address",
          "name": "newOwner",
          "type": "address"
        }
      ],
      "name": "transferOwnership",
      "outputs": [],
      "stateMutability": "nonpayable",
      "type": "function"
    },
    {
      "inputs": [],
      "name": "pause",
      "outputs": [],
      "stateMutability": "nonpayable",
      "type": "function"
    },
    {
      "inputs": [],
      "name": "unpause",
      "outputs": [],
      "stateMutability": "nonpayable",
      "type": "function"
    },
    {
      "inputs": [],
      "name": "mint",
      "outputs": [],
      "stateMutability": "nonpayable",
      "type": "function"
    },
    {
      "inputs": [],
      "name": "getTeamAddr",
      "outputs": [
        {
          "internalType": "address",
          "name": "",
          "type": "address"
        }
      ],
      "stateMutability": "view",
      "type": "function",
      "constant": true
    },
    {
      "inputs": [],
      "name": "getTeamTimeLockAddr",
      "outputs": [
        {
          "internalType": "address",
          "name": "",
          "type": "address"
        }
      ],
      "stateMutability": "view",
      "type": "function",
      "constant": true
    },
    {
      "inputs": [],
      "name": "getAdvisorsAddr",
      "outputs": [
        {
          "internalType": "address",
          "name": "",
          "type": "address"
        }
      ],
      "stateMutability": "view",
      "type": "function",
      "constant": true
    },
    {
      "inputs": [],
      "name": "getAdvisorsVestingAddr",
      "outputs": [
        {
          "internalType": "address",
          "name": "",
          "type": "address"
        }
      ],
      "stateMutability": "view",
      "type": "function",
      "constant": true
    },
    {
      "inputs": [],
      "name": "getPrivateSaleAddr",
      "outputs": [
        {
          "internalType": "address",
          "name": "",
          "type": "address"
        }
      ],
      "stateMutability": "view",
      "type": "function",
      "constant": true
    },
    {
      "inputs": [],
      "name": "getPresaleAddr",
      "outputs": [
        {
          "internalType": "address",
          "name": "",
          "type": "address"
        }
      ],
      "stateMutability": "view",
      "type": "function",
      "constant": true
    },
    {
      "inputs": [],
      "name": "getIDOAddr",
      "outputs": [
        {
          "internalType": "address",
          "name": "",
          "type": "address"
        }
      ],
      "stateMutability": "view",
      "type": "function",
      "constant": true
    },
    {
      "inputs": [],
      "name": "getCEXAddr",
      "outputs": [
        {
          "internalType": "address",
          "name": "",
          "type": "address"
        }
      ],
      "stateMutability": "view",
      "type": "function",
      "constant": true
    },
    {
      "inputs": [],
      "name": "getPunchwordTreasuryAddr",
      "outputs": [
        {
          "internalType": "address",
          "name": "",
          "type": "address"
        }
      ],
      "stateMutability": "view",
      "type": "function",
      "constant": true
    },
    {
      "inputs": [],
      "name": "getgiveawaysAddr",
      "outputs": [
        {
          "internalType": "address",
          "name": "",
          "type": "address"
        }
      ],
      "stateMutability": "view",
      "type": "function",
      "constant": true
    }
  ],
  "bytecode": "0x60806040526017805460ff191690553480156200001b57600080fd5b5060405162003bff38038062003bff8339810160408190526200003e91620003c6565b604080518082018252600c81526b283ab731b43c902a37b5b2b760a11b6020808301918252835180850190945260058452640a0aa9c86960db1b9084015281519192916200008f9160039162000303565b508051620000a590600490602084019062000303565b505050620000c2620000bc620002ad60201b60201c565b620002b1565b60058054600160a01b61ffff60a01b19909116179055600680546001600160a01b03199081166001600160a01b038b8116919091179092556007805482168a8416179055600880548216898416179055600980548216888416179055600a80548216878416179055600b80548216868416179055600c80548216858416179055600d80549091169183169190911790556200015b601290565b6200016b9060ff16600a62000583565b6200017b90630ee6b28062000598565b600f556200018c6012600a62000583565b6200019c90632cb4178062000598565b601055620001ad6012600a62000583565b620001bd906310642ac062000598565b601155620001ce6012600a62000583565b620001de90631896402062000598565b601255620001ea601290565b620001fa9060ff16600a62000583565b6200020a9063395e95a062000598565b6013556200021b6012600a62000583565b6200022b90634190ab0062000598565b6014556200023c6012600a62000583565b6200024c90633b9aca0062000598565b6015556200025d6012600a62000583565b6200026d90630ee6b28062000598565b6016555050636360618060185550506365e11a80601955505063621d6200601a55505063016a8c7f601b556302d3c77f601c5562093a80601d55620005f7565b3390565b600580546001600160a01b038381166001600160a01b0319831681179093556040519116919082907f8be0079c531659141344cd1fd0a4f28419497f9722a3daafe3b4186f6b6457e090600090a35050565b8280546200031190620005ba565b90600052602060002090601f01602090048101928262000335576000855562000380565b82601f106200035057805160ff191683800117855562000380565b8280016001018555821562000380579182015b828111156200038057825182559160200191906001019062000363565b506200038e92915062000392565b5090565b5b808211156200038e576000815560010162000393565b80516001600160a01b0381168114620003c157600080fd5b919050565b600080600080600080600080610100898b031215620003e457600080fd5b620003ef89620003a9565b9750620003ff60208a01620003a9565b96506200040f60408a01620003a9565b95506200041f60608a01620003a9565b94506200042f60808a01620003a9565b93506200043f60a08a01620003a9565b92506200044f60c08a01620003a9565b91506200045f60e08a01620003a9565b90509295985092959890939650565b634e487b7160e01b600052601160045260246000fd5b600181815b80851115620004c5578160001904821115620004a957620004a96200046e565b80851615620004b757918102915b93841c939080029062000489565b509250929050565b600082620004de575060016200057d565b81620004ed575060006200057d565b8160018114620005065760028114620005115762000531565b60019150506200057d565b60ff8411156200052557620005256200046e565b50506001821b6200057d565b5060208310610133831016604e8410600b841016171562000556575081810a6200057d565b62000562838362000484565b80600019048211156200057957620005796200046e565b0290505b92915050565b6000620005918383620004cd565b9392505050565b6000816000190483118215151615620005b557620005b56200046e565b500290565b600181811c90821680620005cf57607f821691505b60208210811415620005f157634e487b7160e01b600052602260045260246000fd5b50919050565b6135f880620006076000396000f3fe60806040523480156200001157600080fd5b5060043610620001725760003560e01c8063027ab765146200017757806306fdde03146200019c578063095ea7b314620001b55780631249c58b14620001dd57806317a11e9514620001e957806318160ddd14620001fb57806323b872dd146200020e578063313ce56714620002255780633950935114620002355780633f4ba83a146200024c5780633f63dd5814620002565780635c975abb1462000268578063661ef2a6146200027257806370a082311462000284578063715018a614620002b057806377dbc38e14620002ba5780638456cb5914620002cc5780638da5cb5b14620002d6578063929887d914620002e057806395d89b4114620002f2578063a457c2d714620002fc578063a9059cbb1462000313578063c796686f146200032a578063d8338cf9146200033c578063dd62ed3e146200034e578063ea90f523146200038a578063f0b72fed146200039c578063f2fde38b14620003ae575b600080fd5b600c546001600160a01b03165b604051620001939190620010b2565b60405180910390f35b620001a6620003c5565b604051620001939190620010c6565b620001cc620001c63660046200113b565b6200045f565b604051901515815260200162000193565b620001e762000477565b005b600a546001600160a01b031662000184565b6002545b60405190815260200162000193565b620001cc6200021f36600462001168565b62000718565b6040516012815260200162000193565b620001cc620002463660046200113b565b620007c8565b620001e762000808565b601e546001600160a01b031662000184565b620001cc6200085f565b600d546001600160a01b031662000184565b620001ff62000295366004620011a9565b6001600160a01b031660009081526020819052604090205490565b620001e76200086f565b6008546001600160a01b031662000184565b620001e7620008af565b62000184620008ed565b6006546001600160a01b031662000184565b620001a6620008fc565b620001cc6200030d3660046200113b565b6200090d565b620001cc620003243660046200113b565b620009aa565b600e546001600160a01b031662000184565b6007546001600160a01b031662000184565b620001ff6200035f366004620011ce565b6001600160a01b03918216600090815260016020908152604080832093909416825291909152205490565b600b546001600160a01b031662000184565b6009546001600160a01b031662000184565b620001e7620003bf366004620011a9565b620009b9565b606060038054620003d69062001206565b80601f0160208091040260200160405190810160405280929190818152602001828054620004049062001206565b8015620004555780601f10620004295761010080835404028352916020019162000455565b820191906000526020600020905b8154815290600101906020018083116200043757829003601f168201915b5050505050905090565b60006200046e33848462000a62565b50600192915050565b60175460ff1615620004ce5760405162461bcd60e51b815260206004820152601b60248201527a105b1b081d1bdad95b9cc81a185d99481899595b881b5a5b9d1959602a1b60448201526064015b60405180910390fd5b30604051620004dd9062001096565b620004e99190620010b2565b604051809103906000f08015801562000506573d6000803e3d6000fd5b50601e80546001600160a01b0319166001600160a01b03929092169182179055600f5462000535919062000b8a565b601e54600654601a54601b54601c54601d54600f546040516317e289e960e01b81526001600160a01b0396871660048201526024810195909552604485019390935260648401919091526084830152600160a483015260c48201529116906317e289e99060e401600060405180830381600087803b158015620005b757600080fd5b505af1158015620005cc573d6000803e3d6000fd5b50506007546019546040513094506001600160a01b03909216925090620005f390620010a4565b6001600160a01b0393841681529290911660208301526040820152606001604051809103906000f0801580156200062e573d6000803e3d6000fd5b50600e80546001600160a01b0319166001600160a01b039290921691821790556010546200065d919062000b8a565b60085460115462000678916001600160a01b03169062000b8a565b60095460125462000693916001600160a01b03169062000b8a565b600a54601354620006ae916001600160a01b03169062000b8a565b600b54601454620006c9916001600160a01b03169062000b8a565b600c54601554620006e4916001600160a01b03169062000b8a565b600d54601654620006ff916001600160a01b03169062000b8a565b62000709620008af565b6017805460ff19166001179055565b60006200072784848462000c6c565b6001600160a01b038416600090815260016020908152604080832033845290915290205482811015620007ae5760405162461bcd60e51b815260206004820152602860248201527f45524332303a207472616e7366657220616d6f756e74206578636565647320616044820152676c6c6f77616e636560c01b6064820152608401620004c5565b620007bd853385840362000a62565b506001949350505050565b3360008181526001602090815260408083206001600160a01b038716845290915281205490916200046e9185906200080290869062001243565b62000a62565b6018544211620008535760405162461bcd60e51b8152602060048201526015602482015274546f6b656e206973207374696c6c20696e2049434f60581b6044820152606401620004c5565b6200085d62000e40565b565b600554600160a81b900460ff1690565b336200087a620008ed565b6001600160a01b031614620008a35760405162461bcd60e51b8152600401620004c5906200126a565b6200085d600062000ed9565b33620008ba620008ed565b6001600160a01b031614620008e35760405162461bcd60e51b8152600401620004c5906200126a565b6200085d62000f2b565b6005546001600160a01b031690565b606060048054620003d69062001206565b3360009081526001602090815260408083206001600160a01b038616845290915281205482811015620009915760405162461bcd60e51b815260206004820152602560248201527f45524332303a2064656372656173656420616c6c6f77616e63652062656c6f77604482015264207a65726f60d81b6064820152608401620004c5565b620009a0338585840362000a62565b5060019392505050565b60006200046e33848462000c6c565b33620009c4620008ed565b6001600160a01b031614620009ed5760405162461bcd60e51b8152600401620004c5906200126a565b6001600160a01b03811662000a545760405162461bcd60e51b815260206004820152602660248201527f4f776e61626c653a206e6577206f776e657220697320746865207a65726f206160448201526564647265737360d01b6064820152608401620004c5565b62000a5f8162000ed9565b50565b6001600160a01b03831662000ac65760405162461bcd60e51b8152602060048201526024808201527f45524332303a20617070726f76652066726f6d20746865207a65726f206164646044820152637265737360e01b6064820152608401620004c5565b6001600160a01b03821662000b295760405162461bcd60e51b815260206004820152602260248201527f45524332303a20617070726f766520746f20746865207a65726f206164647265604482015261737360f01b6064820152608401620004c5565b6001600160a01b0383811660008181526001602090815260408083209487168084529482529182902085905590518481527f8c5be1e5ebec7d5bd14f71427d1e84f3dd0314c0f7b2291e5b200ac8c7c3b925910160405180910390a3505050565b6001600160a01b03821662000be25760405162461bcd60e51b815260206004820152601f60248201527f45524332303a206d696e7420746f20746865207a65726f2061646472657373006044820152606401620004c5565b62000bf06000838362001041565b806002600082825462000c04919062001243565b90915550506001600160a01b0382166000908152602081905260408120805483929062000c3390849062001243565b90915550506040518181526001600160a01b03831690600090600080516020620035a38339815191529060200160405180910390a35050565b6001600160a01b03831662000cd25760405162461bcd60e51b815260206004820152602560248201527f45524332303a207472616e736665722066726f6d20746865207a65726f206164604482015264647265737360d81b6064820152608401620004c5565b6001600160a01b03821662000d365760405162461bcd60e51b815260206004820152602360248201527f45524332303a207472616e7366657220746f20746865207a65726f206164647260448201526265737360e81b6064820152608401620004c5565b62000d4383838362001041565b6001600160a01b0383166000908152602081905260409020548181101562000dbd5760405162461bcd60e51b815260206004820152602660248201527f45524332303a207472616e7366657220616d6f756e7420657863656564732062604482015265616c616e636560d01b6064820152608401620004c5565b6001600160a01b0380851660009081526020819052604080822085850390559185168152908120805484929062000df690849062001243565b92505081905550826001600160a01b0316846001600160a01b0316600080516020620035a38339815191528460405162000e3291815260200190565b60405180910390a350505050565b62000e4a6200085f565b62000e8f5760405162461bcd60e51b815260206004820152601460248201527314185d5cd8589b194e881b9bdd081c185d5cd95960621b6044820152606401620004c5565b6005805461ffff60a01b191690557f5db9ee0a495bf2e6ff9c91a7834c1ba4fdd244a5e8aa4e537bd38aeae4b073aa335b60405162000ecf9190620010b2565b60405180910390a1565b600580546001600160a01b038381166001600160a01b0319831681179093556040519116919082907f8be0079c531659141344cd1fd0a4f28419497f9722a3daafe3b4186f6b6457e090600090a35050565b3362000f36620008ed565b6001600160a01b03161462000f5f5760405162461bcd60e51b8152600401620004c5906200126a565b62000f696200085f565b158062000f90575062000f7b620008ed565b6001600160a01b0316336001600160a01b0316145b62000faf5760405162461bcd60e51b8152600401620004c5906200129f565b600554600160a01b900460ff161515600114620010055760405162461bcd60e51b8152602060048201526013602482015272546f6b656e20697320756e7061757361626c6560681b6044820152606401620004c5565b6005805460ff60a81b1916600160a81b1790557f62e78cea01bee320cd4e420270b5ea74000d11b0c9f74754ebdbfc544b05a25862000ec03390565b6200104b6200085f565b15806200107257506200105d620008ed565b6001600160a01b0316336001600160a01b0316145b620010915760405162461bcd60e51b8152600401620004c5906200129f565b505050565b611b7c80620012ca83390190565b61075d8062002e4683390190565b6001600160a01b0391909116815260200190565b600060208083528351808285015260005b81811015620010f557858101830151858201604001528201620010d7565b8181111562001108576000604083870101525b50601f01601f1916929092016040019392505050565b80356001600160a01b03811681146200113657600080fd5b919050565b600080604083850312156200114f57600080fd5b6200115a836200111e565b946020939093013593505050565b6000806000606084860312156200117e57600080fd5b62001189846200111e565b925062001199602085016200111e565b9150604084013590509250925092565b600060208284031215620011bc57600080fd5b620011c7826200111e565b9392505050565b60008060408385031215620011e257600080fd5b620011ed836200111e565b9150620011fd602084016200111e565b90509250929050565b600181811c908216806200121b57607f821691505b602082108114156200123d57634e487b7160e01b600052602260045260246000fd5b50919050565b600082198211156200126557634e487b7160e01b600052601160045260246000fd5b500190565b6020808252818101527f4f776e61626c653a2063616c6c6572206973206e6f7420746865206f776e6572604082015260600190565b60208082526010908201526f14185d5cd8589b194e881c185d5cd95960821b60408201526060019056fe60a06040523480156200001157600080fd5b5060405162001b7c38038062001b7c8339810160408190526200003491620000b9565b6200003f3362000069565b600180556001600160a01b0381166200005757600080fd5b6001600160a01b0316608052620000eb565b600080546001600160a01b038381166001600160a01b0319831681178455604051919092169283917f8be0079c531659141344cd1fd0a4f28419497f9722a3daafe3b4186f6b6457e09190a35050565b600060208284031215620000cc57600080fd5b81516001600160a01b0381168114620000e457600080fd5b9392505050565b608051611a606200011c600039600081816101410152818161091001528181610bbe0152610d610152611a606000f3fe6080604052600436106100e55760003560e01c806313083617146100ee57806317e289e91461011257806321df0da7146101325780632e1a7d4d1461016e57806348deb4711461018e5780635a7bb69a146101a357806366afd8ef146101d9578063715018a6146101f95780637e913dc61461020e5780638af104da1461023b5780638da5cb5b1461025b57806390be10cc146102705780639ef346b414610285578063b75c7dc6146102a5578063ea1bb3d5146102c5578063f2fde38b146102e5578063f51321d714610305578063f7c469f014610325578063f9079b371461034557005b366100ec57005b005b3480156100fa57600080fd5b506002545b6040519081526020015b60405180910390f35b34801561011e57600080fd5b506100ec61012d3660046116e7565b610365565b34801561013e57600080fd5b507f00000000000000000000000000000000000000000000000000000000000000005b604051610109919061174e565b34801561017a57600080fd5b506100ec610189366004611762565b6107df565b34801561019a57600080fd5b506004546100ff565b3480156101af57600080fd5b506100ff6101be36600461177b565b6001600160a01b031660009081526005602052604090205490565b3480156101e557600080fd5b506100ec6101f4366004611796565b61093e565b34801561020557600080fd5b506100ec610bf3565b34801561021a57600080fd5b5061022e61022936600461177b565b610c2e565b60405161010991906117b8565b34801561024757600080fd5b506100ff610256366004611843565b610d06565b34801561026757600080fd5b50610161610d48565b34801561027c57600080fd5b506100ff610d57565b34801561029157600080fd5b5061022e6102a0366004611762565b610df7565b3480156102b157600080fd5b506100ec6102c0366004611762565b610e9e565b3480156102d157600080fd5b506100ff6102e0366004611762565b61106c565b3480156102f157600080fd5b506100ec61030036600461177b565b611156565b34801561031157600080fd5b5061022e610320366004611843565b6111f6565b34801561033157600080fd5b506100ff61034036600461177b565b611212565b34801561035157600080fd5b506100ff610360366004611762565b61123c565b3361036e610d48565b6001600160a01b03161461039d5760405162461bcd60e51b81526004016103949061186d565b60405180910390fd5b80306001600160a01b03166390be10cc6040518163ffffffff1660e01b8152600401602060405180830381865afa1580156103dc573d6000803e3d6000fd5b505050506040513d601f19601f8201168201806040525081019061040091906118a2565b10156104875760405162461bcd60e51b815260206004820152604a60248201527f546f6b656e56657374696e673a2063616e6e6f7420637265617465207665737460448201527f696e67207363686564756c652062656361757365206e6f742073756666696369606482015269656e7420746f6b656e7360b01b608482015260a401610394565b600084116104e25760405162461bcd60e51b815260206004820152602260248201527f546f6b656e56657374696e673a206475726174696f6e206d757374206265203e604482015261020360f41b6064820152608401610394565b600081116105325760405162461bcd60e51b815260206004820181905260248201527f546f6b656e56657374696e673a20616d6f756e74206d757374206265203e20306044820152606401610394565b60018310156105995760405162461bcd60e51b815260206004820152602d60248201527f546f6b656e56657374696e673a20736c696365506572696f645365636f6e647360448201526c206d757374206265203e3d203160981b6064820152608401610394565b604051630f7c469f60e41b8152600090309063f7c469f0906105bf908b9060040161174e565b602060405180830381865afa1580156105dc573d6000803e3d6000fd5b505050506040513d601f19601f8201168201806040525081019061060091906118a2565b9050600061060e88886112c4565b90506040518061014001604052806001151581526020018a6001600160a01b03168152602001828152602001898152602001878152602001868152602001851515815260200184815260200160008152602001600015158152506003600084815260200190815260200160002060008201518160000160006101000a81548160ff02191690831515021790555060208201518160000160016101000a8154816001600160a01b0302191690836001600160a01b0316021790555060408201518160010155606082015181600201556080820151816003015560a0820151816004015560c08201518160050160006101000a81548160ff02191690831515021790555060e0820151816006015561010082015181600701556101208201518160080160006101000a81548160ff02191690831515021790555090505061075e836004546112c490919063ffffffff16565b6004556002805460018181019092557f405787fa12a823e0f2b7631cc41b3ba8828b3321ca811111fa75cd3aa3bb5ace018390556001600160a01b038a16600090815260056020526040902054906107b79082906112c4565b6001600160a01b03909a16600090815260056020526040902099909955505050505050505050565b600260015414156108025760405162461bcd60e51b8152600401610394906118bb565b600260015533610810610d48565b6001600160a01b0316146108365760405162461bcd60e51b81526004016103949061186d565b80306001600160a01b03166390be10cc6040518163ffffffff1660e01b8152600401602060405180830381865afa158015610875573d6000803e3d6000fd5b505050506040513d601f19601f8201168201806040525081019061089991906118a2565b10156108fb5760405162461bcd60e51b815260206004820152602b60248201527f546f6b656e56657374696e673a206e6f7420656e6f756768207769746864726160448201526a7761626c652066756e647360a81b6064820152608401610394565b610937610906610d48565b6001600160a01b037f00000000000000000000000000000000000000000000000000000000000000001690836112d0565b5060018055565b600260015414156109615760405162461bcd60e51b8152600401610394906118bb565b60026001908155600083815260036020526040902054839160ff90911615151461098a57600080fd5b60008181526003602052604090206008015460ff16156109a957600080fd5b6000838152600360205260408120805490916101009091046001600160a01b03163314906109d5610d48565b6001600160a01b0316336001600160a01b031614905081806109f45750805b610a715760405162461bcd60e51b815260206004820152604260248201527f546f6b656e56657374696e673a206f6e6c792062656e6566696369617279206160448201527f6e64206f776e65722063616e2072656c656173652076657374656420746f6b656064820152616e7360f01b608482015260a401610394565b6040805161014081018252845460ff808216151583526001600160a01b03610100928390041660208401526001870154938301939093526002860154606083015260038601546080830152600486015460a083015260058601548316151560c0830152600686015460e083015260078601549082015260088501549091161515610120820152600090610b0390611327565b905085811015610b7b5760405162461bcd60e51b815260206004820152603d60248201527f546f6b656e56657374696e673a2063616e6e6f742072656c6561736520746f6b60448201527f656e732c206e6f7420656e6f7567682076657374656420746f6b656e730000006064820152608401610394565b6007840154610b8a90876112c4565b600785015583546004546101009091046001600160a01b031690610bae908861140a565b600455610be56001600160a01b037f00000000000000000000000000000000000000000000000000000000000000001682896112d0565b505060018055505050505050565b33610bfc610d48565b6001600160a01b031614610c225760405162461bcd60e51b81526004016103949061186d565b610c2c6000611416565b565b610c3661165b565b6001600160a01b03821660009081526005602052604081205460039190610c6590859061025690600190611908565b81526020808201929092526040908101600020815161014081018352815460ff808216151583526001600160a01b036101009283900416958301959095526001830154938201939093526002820154606082015260038201546080820152600482015460a082015260058201548416151560c0820152600682015460e082015260078201549281019290925260080154909116151561012082015292915050565b6040516001600160601b0319606084901b1660208201526034810182905260009060540160405160208183030381529060405280519060200120905092915050565b6000546001600160a01b031690565b6000610df26004547f00000000000000000000000000000000000000000000000000000000000000006001600160a01b03166370a08231306040518263ffffffff1660e01b8152600401610dab919061174e565b602060405180830381865afa158015610dc8573d6000803e3d6000fd5b505050506040513d601f19601f82011682018060405250810190610dec91906118a2565b9061140a565b905090565b610dff61165b565b50600090815260036020818152604092839020835161014081018552815460ff808216151583526001600160a01b0361010092839004169483019490945260018301549582019590955260028201546060820152928101546080840152600481015460a084015260058101548216151560c0840152600681015460e0840152600781015493830193909352600890920154909116151561012082015290565b33610ea7610d48565b6001600160a01b031614610ecd5760405162461bcd60e51b81526004016103949061186d565b600081815260036020526040902054819060ff161515600114610eef57600080fd5b60008181526003602052604090206008015460ff1615610f0e57600080fd5b6000828152600360205260409020600581015460ff161515600114610f845760405162461bcd60e51b815260206004820152602660248201527f546f6b656e56657374696e673a2076657374696e67206973206e6f74207265766044820152656f6361626c6560d01b6064820152608401610394565b6040805161014081018252825460ff808216151583526001600160a01b03610100928390041660208401526001850154938301939093526002840154606083015260038401546080830152600484015460a083015260058401548316151560c0830152600684015460e08301526007840154908201526008830154909116151561012082015260009061101690611327565b9050801561102857611028848261093e565b60006110458360070154846006015461140a90919063ffffffff16565b600454909150611055908261140a565b6004555050600801805460ff191660011790555050565b600081815260036020526040812054829060ff16151560011461108e57600080fd5b60008181526003602052604090206008015460ff16156110ad57600080fd5b600083815260036020818152604092839020835161014081018552815460ff808216151583526001600160a01b0361010092839004169483019490945260018301549582019590955260028201546060820152928101546080840152600481015460a084015260058101548216151560c0840152600681015460e0840152600781015493830193909352600883015416151561012082015261114e90611327565b949350505050565b3361115f610d48565b6001600160a01b0316146111855760405162461bcd60e51b81526004016103949061186d565b6001600160a01b0381166111ea5760405162461bcd60e51b815260206004820152602660248201527f4f776e61626c653a206e6577206f776e657220697320746865207a65726f206160448201526564647265737360d01b6064820152608401610394565b6111f381611416565b50565b6111fe61165b565b61120b6102a08484610d06565b9392505050565b6001600160a01b038116600090815260056020526040812054611236908390610d06565b92915050565b600061124760025490565b821061129f5760405162461bcd60e51b815260206004820152602160248201527f546f6b656e56657374696e673a20696e646578206f7574206f6620626f756e646044820152607360f81b6064820152608401610394565b600282815481106112b2576112b261191f565b90600052602060002001549050919050565b600061120b8284611935565b604080516001600160a01b038416602482015260448082018490528251808303909101815260649091019091526020810180516001600160e01b031663a9059cbb60e01b179052611322908490611466565b505050565b60408101516000904290811080611345575061012083015115156001145b156113535750600092915050565b60808301516060840151611366916112c4565b81106113805761010083015160e084015161120b9161140a565b600061139984606001518361140a90919063ffffffff16565b60a085015190915060006113ad8383611538565b905060006113bb8284611544565b905060006113e488608001516113de848b60e0015161154490919063ffffffff16565b90611538565b90506113fe8861010001518261140a90919063ffffffff16565b98975050505050505050565b600061120b8284611908565b600080546001600160a01b038381166001600160a01b0319831681178455604051919092169283917f8be0079c531659141344cd1fd0a4f28419497f9722a3daafe3b4186f6b6457e09190a35050565b60006114bb826040518060400160405280602081526020017f5361666545524332303a206c6f772d6c6576656c2063616c6c206661696c6564815250856001600160a01b03166115509092919063ffffffff16565b80519091501561132257808060200190518101906114d9919061194d565b6113225760405162461bcd60e51b815260206004820152602a60248201527f5361666545524332303a204552433230206f7065726174696f6e20646964206e6044820152691bdd081cdd58d8d9595960b21b6064820152608401610394565b600061120b828461196a565b600061120b828461198c565b606061114e848460008585843b6115a95760405162461bcd60e51b815260206004820152601d60248201527f416464726573733a2063616c6c20746f206e6f6e2d636f6e74726163740000006044820152606401610394565b600080866001600160a01b031685876040516115c591906119db565b60006040518083038185875af1925050503d8060008114611602576040519150601f19603f3d011682016040523d82523d6000602084013e611607565b606091505b5091509150611617828286611622565b979650505050505050565b6060831561163157508161120b565b8251156116415782518084602001fd5b8160405162461bcd60e51b815260040161039491906119f7565b60405180610140016040528060001515815260200160006001600160a01b031681526020016000815260200160008152602001600081526020016000815260200160001515815260200160008152602001600081526020016000151581525090565b80356001600160a01b03811681146116d457600080fd5b919050565b80151581146111f357600080fd5b600080600080600080600060e0888a03121561170257600080fd5b61170b886116bd565b96506020880135955060408801359450606088013593506080880135925060a0880135611737816116d9565b8092505060c0880135905092959891949750929550565b6001600160a01b0391909116815260200190565b60006020828403121561177457600080fd5b5035919050565b60006020828403121561178d57600080fd5b61120b826116bd565b600080604083850312156117a957600080fd5b50508035926020909101359150565b815115158152610140810160208301516117dd60208401826001600160a01b03169052565b5060408301516040830152606083015160608301526080830151608083015260a083015160a083015260c083015161181960c084018215159052565b5060e083810151908301526101008084015190830152610120928301511515929091019190915290565b6000806040838503121561185657600080fd5b61185f836116bd565b946020939093013593505050565b6020808252818101527f4f776e61626c653a2063616c6c6572206973206e6f7420746865206f776e6572604082015260600190565b6000602082840312156118b457600080fd5b5051919050565b6020808252601f908201527f5265656e7472616e637947756172643a207265656e7472616e742063616c6c00604082015260600190565b634e487b7160e01b600052601160045260246000fd5b60008282101561191a5761191a6118f2565b500390565b634e487b7160e01b600052603260045260246000fd5b60008219821115611948576119486118f2565b500190565b60006020828403121561195f57600080fd5b815161120b816116d9565b60008261198757634e487b7160e01b600052601260045260246000fd5b500490565b60008160001904831182151516156119a6576119a66118f2565b500290565b60005b838110156119c65781810151838201526020016119ae565b838111156119d5576000848401525b50505050565b600082516119ed8184602087016119ab565b9190910192915050565b6020815260008251806020840152611a168160408501602087016119ab565b601f01601f1916919091016040019291505056fea264697066735822122085c4c85f38b86f19309ccf13a3f46f5063c9c07b67bd281e71f8334f9f31c20364736f6c634300080b003360e060405234801561001057600080fd5b5060405161075d38038061075d83398101604081905261002f916100d0565b42811161009d5760405162461bcd60e51b815260206004820152603260248201527f546f6b656e54696d656c6f636b3a2072656c656173652074696d65206973206260448201527165666f72652063757272656e742074696d6560701b606482015260840160405180910390fd5b6001600160a01b03928316608052911660a05260c052610113565b6001600160a01b03811681146100cd57600080fd5b50565b6000806000606084860312156100e557600080fd5b83516100f0816100b8565b6020850151909350610101816100b8565b80925050604084015190509250925092565b60805160a05160c05161061c610141600039600061022f01526000609901526000610253015261061c6000f3fe608060405234801561001057600080fd5b506004361061004c5760003560e01c806338af3eed1461005157806386d1a69f1461006f578063b91d400114610079578063fc0c546a1461008f575b600080fd5b610059610097565b6040516100669190610518565b60405180910390f35b6100776100bb565b005b61008161022d565b604051908152602001610066565b610059610251565b7f000000000000000000000000000000000000000000000000000000000000000090565b6100c361022d565b4210156101325760405162461bcd60e51b815260206004820152603260248201527f546f6b656e54696d656c6f636b3a2063757272656e742074696d65206973206260448201527165666f72652072656c656173652074696d6560701b60648201526084015b60405180910390fd5b600061013c610251565b6001600160a01b03166370a08231306040518263ffffffff1660e01b81526004016101679190610518565b602060405180830381865afa158015610184573d6000803e3d6000fd5b505050506040513d601f19601f820116820180604052508101906101a8919061052c565b9050600081116102065760405162461bcd60e51b815260206004820152602360248201527f546f6b656e54696d656c6f636b3a206e6f20746f6b656e7320746f2072656c6560448201526261736560e81b6064820152608401610129565b61022a610211610097565b8261021a610251565b6001600160a01b03169190610275565b50565b7f000000000000000000000000000000000000000000000000000000000000000090565b7f000000000000000000000000000000000000000000000000000000000000000090565b604080516001600160a01b038416602482015260448082018490528251808303909101815260649091019091526020810180516001600160e01b031663a9059cbb60e01b1790526102c79084906102cc565b505050565b6000610321826040518060400160405280602081526020017f5361666545524332303a206c6f772d6c6576656c2063616c6c206661696c6564815250856001600160a01b031661039e9092919063ffffffff16565b8051909150156102c7578080602001905181019061033f9190610545565b6102c75760405162461bcd60e51b815260206004820152602a60248201527f5361666545524332303a204552433230206f7065726174696f6e20646964206e6044820152691bdd081cdd58d8d9595960b21b6064820152608401610129565b60606103ad84846000856103b7565b90505b9392505050565b6060824710156104185760405162461bcd60e51b815260206004820152602660248201527f416464726573733a20696e73756666696369656e742062616c616e636520666f6044820152651c8818d85b1b60d21b6064820152608401610129565b843b6104665760405162461bcd60e51b815260206004820152601d60248201527f416464726573733a2063616c6c20746f206e6f6e2d636f6e74726163740000006044820152606401610129565b600080866001600160a01b031685876040516104829190610597565b60006040518083038185875af1925050503d80600081146104bf576040519150601f19603f3d011682016040523d82523d6000602084013e6104c4565b606091505b50915091506104d48282866104df565b979650505050505050565b606083156104ee5750816103b0565b8251156104fe5782518084602001fd5b8160405162461bcd60e51b815260040161012991906105b3565b6001600160a01b0391909116815260200190565b60006020828403121561053e57600080fd5b5051919050565b60006020828403121561055757600080fd5b815180151581146103b057600080fd5b60005b8381101561058257818101518382015260200161056a565b83811115610591576000848401525b50505050565b600082516105a9818460208701610567565b9190910192915050565b60208152600082518060208401526105d2816040850160208701610567565b601f01601f1916919091016040019291505056fea2646970667358221220093d805c3aebffe922a0710c0025c9e1259fe10769dce25a01d2e2bcd3259b5264736f6c634300080b0033ddf252ad1be2c89b69c2b068fc378daa952ba7f163c4a11628f55a4df523b3efa2646970667358221220ea7a78e01338fdbea97e955ad1ae4bff84f57ba4cf3f9b62dc17fb292d5cbbf064736f6c634300080b0033",
  "immutableReferences": {},
  "source": "// contracts/MyNFT.sol\n// SPDX-License-Identifier: MIT\npragma solidity ^0.8.0;\n\nimport \"./Pausable.sol\";\nimport \"@openzeppelin/contracts/token/ERC20/ERC20.sol\";\nimport \"@openzeppelin/contracts/token/ERC20/utils/TokenTimelock.sol\";\nimport \"@openzeppelin/contracts/utils/math/SafeMath.sol\";\nimport \"./TokenVesting.sol\";\nimport \"@openzeppelin/contracts/token/ERC20/ERC20.sol\";\n\ncontract PunchyToken is ERC20, Pausable {\n\n    address private _advisorsAddr;\n  \taddress private _teamAddr;\n    address private _privateSaleAddr;\n    address private _presaleAddr;\n    address private _IDOAddr;\n    address private _CEXAddr;\n    address private _punchwordTreasuryAddr;\n    address private _giveawaysAddr;\n\n    address private _teamTimeLock;\n\n    uint256 private _advisorsSupply;\n  \tuint256 private _teamSupply;\n    uint256 private _privateSaleSupply;\n    uint256 private _presaleSupply;\n    uint256 private _IDOSupply;\n    uint256 private _CEXSupply;\n    uint256 private _punchwordTreasurySupply;\n    uint256 private _giveawaysSupply;\n\n    bool alreadyMinted = false;\n\n    uint256 private _endOfICO;\n\n    uint256 private _teamReleaseTime;\n\n    uint256 private _vestingStartTime;\n    uint256 private _vestingCliff;\n    uint256 private _vestingDuration;\n    uint256 private _vestingSlicePeriod;\n\n    TokenVesting private _vesting;\n\n\n    constructor(\n                address advisorsAddr,\n                address teamAddr,\n                address privateSaleAddr,\n                address presaleddr,\n                address IDOAddr,\n                address CEXAddr,\n                address punchwordTreasuryAddr,\n                address giveawaysAddr\n        ) ERC20(\"Punchy Token\", \"PUNCH\") {\n\n        _advisorsAddr=advisorsAddr;\n        _teamAddr=teamAddr;\n        _privateSaleAddr=privateSaleAddr;\n        _presaleAddr=presaleddr;\n        _IDOAddr=IDOAddr;\n        _CEXAddr=CEXAddr;\n        _punchwordTreasuryAddr=punchwordTreasuryAddr;\n        _giveawaysAddr=giveawaysAddr;\n        \n        _advisorsSupply=250000000 * (10 ** uint256(decimals())); \n        _teamSupply=750000000 * (10 ** uint256(decimals())); \n        _privateSaleSupply=275000000 * (10 ** uint256(decimals())); \n        _presaleSupply=412500000 * (10 ** uint256(decimals()));\n        _IDOSupply=962500000 * (10 ** uint256(decimals()));\n        _CEXSupply=1100000000 * (10 ** uint256(decimals()));\n        _punchwordTreasurySupply=1000000000 * (10 ** uint256(decimals()));\n        _giveawaysSupply=250000000 * (10 ** uint256(decimals()));\n\n        _endOfICO=1667260800;  // Tuesday, November 1, 2022 12:00:00 AM GMT \n        _teamReleaseTime=1709251200; //Friday, March 1, 2024 12:00:00 AM\n\n        _vestingStartTime=1646092800; //Tuesday, March 1, 2022 12:00:00 AM\n        _vestingCliff=23759999;  // 274 days, 23 hours, 59 minutes and 59 seconds. (9 months) \n        _vestingDuration=47433599; // 548 days, 23 hours, 59 minutes and 59 seconds. (18 months)\n        _vestingSlicePeriod=604800; // 7 days, 0 hours, 0 minutes and 0 seconds.\n\n    }\n\n    function pause() public onlyOwner {\n        _pause();\n    }\n\n    function unpause() public  {\n        require (block.timestamp > _endOfICO, \"Token is still in ICO\");\n        _unpause();\n    }\n\n    function mint() public {\n\n        require(!alreadyMinted, \"All tokens have been minted\");\n\n        _vesting=new TokenVesting(address(this));\n        _mint(address(_vesting), _advisorsSupply);\n        _vesting.createVestingSchedule(\n            _advisorsAddr,\n            _vestingStartTime,\n            _vestingCliff,\n            _vestingDuration,\n            _vestingSlicePeriod,\n            true,\n            _advisorsSupply\n            );\n        \n        _teamTimeLock = address(new TokenTimelock(this,_teamAddr,_teamReleaseTime));\n        _mint(_teamTimeLock, _teamSupply);\n\n        _mint(_privateSaleAddr, _privateSaleSupply);\n        _mint(_presaleAddr, _presaleSupply);\n        _mint(_IDOAddr, _IDOSupply);\n        _mint(_CEXAddr, _CEXSupply);\n        _mint(_punchwordTreasuryAddr, _punchwordTreasurySupply);\n        _mint(_giveawaysAddr, _giveawaysSupply);\n        \n        pause();\n\n        alreadyMinted=true;\n\n    }\n\n    function _beforeTokenTransfer(address from, address to, uint256 amount)\n        internal\n        whenNotPaused\n        override\n    {\n        super._beforeTokenTransfer(from, to, amount);\n    }\n\n    /**\n    * @dev Returns  team address.\n    */\n    function getTeamAddr() external view returns (address) {\n    return _teamAddr;\n    }\n\n    /**\n    * @dev Returns  teamTimeLockAddress address.\n    */\n    function getTeamTimeLockAddr() external view returns (address) {\n    return _teamTimeLock;\n    }\n\n    /**\n    * @dev Returns  advisors address.\n    */\n    function getAdvisorsAddr() external view returns (address) {\n    return _advisorsAddr;\n    }\n\n    /**\n    * @dev Returns  team address.\n    */\n    function getAdvisorsVestingAddr() external view returns (address) {\n    return address(_vesting);\n    }\n\n    /**\n    * @dev Returns  team address.\n    */\n    function getPrivateSaleAddr() external view returns (address) {\n    return _privateSaleAddr;\n    }\n\n    /**\n    * @dev Returns  team address.\n    */\n    function getPresaleAddr() external view returns (address) {\n    return _presaleAddr;\n    }\n\n    /**\n    * @dev Returns  team address.\n    */\n    function getIDOAddr() external view returns (address) {\n    return _IDOAddr;\n    }\n\n    /**\n    * @dev Returns  team address.\n    */\n    function getCEXAddr() external view returns (address) {\n    return _CEXAddr;\n    }\n\n    /**\n    * @dev Returns  team address.\n    */\n    function getPunchwordTreasuryAddr() external view returns (address) {\n    return _punchwordTreasuryAddr;\n    }\n\n    /**\n    * @dev Returns  team address.\n    */\n    function getgiveawaysAddr() external view returns (address) {\n    return _giveawaysAddr;\n    }\n}\n",
  "sourcePath": "/Users/asmasmail/Desktop/PunchyToken/contracts/PunchyToken.sol",
  "compiler": {
    "name": "solc",
    "version": "0.8.11+commit.d7f03943.Emscripten.clang"
  },
  "schemaVersion": "3.4.4",
  "updatedAt": "2022-02-17T19:01:18.757Z",
  "networkType": "ethereum",
  "devdoc": {
    "kind": "dev",
    "methods": {
      "allowance(address,address)": {
        "details": "See {IERC20-allowance}."
      },
      "approve(address,uint256)": {
        "details": "See {IERC20-approve}. Requirements: - `spender` cannot be the zero address."
      },
      "balanceOf(address)": {
        "details": "See {IERC20-balanceOf}."
      },
      "decimals()": {
        "details": "Returns the number of decimals used to get its user representation. For example, if `decimals` equals `2`, a balance of `505` tokens should be displayed to a user as `5.05` (`505 / 10 ** 2`). Tokens usually opt for a value of 18, imitating the relationship between Ether and Wei. This is the value {ERC20} uses, unless this function is overridden; NOTE: This information is only used for _display_ purposes: it in no way affects any of the arithmetic of the contract, including {IERC20-balanceOf} and {IERC20-transfer}."
      },
      "decreaseAllowance(address,uint256)": {
        "details": "Atomically decreases the allowance granted to `spender` by the caller. This is an alternative to {approve} that can be used as a mitigation for problems described in {IERC20-approve}. Emits an {Approval} event indicating the updated allowance. Requirements: - `spender` cannot be the zero address. - `spender` must have allowance for the caller of at least `subtractedValue`."
      },
      "getAdvisorsAddr()": {
        "details": "Returns  advisors address."
      },
      "getAdvisorsVestingAddr()": {
        "details": "Returns  team address."
      },
      "getCEXAddr()": {
        "details": "Returns  team address."
      },
      "getIDOAddr()": {
        "details": "Returns  team address."
      },
      "getPresaleAddr()": {
        "details": "Returns  team address."
      },
      "getPrivateSaleAddr()": {
        "details": "Returns  team address."
      },
      "getPunchwordTreasuryAddr()": {
        "details": "Returns  team address."
      },
      "getTeamAddr()": {
        "details": "Returns  team address."
      },
      "getTeamTimeLockAddr()": {
        "details": "Returns  teamTimeLockAddress address."
      },
      "getgiveawaysAddr()": {
        "details": "Returns  team address."
      },
      "increaseAllowance(address,uint256)": {
        "details": "Atomically increases the allowance granted to `spender` by the caller. This is an alternative to {approve} that can be used as a mitigation for problems described in {IERC20-approve}. Emits an {Approval} event indicating the updated allowance. Requirements: - `spender` cannot be the zero address."
      },
      "name()": {
        "details": "Returns the name of the token."
      },
      "owner()": {
        "details": "Returns the address of the current owner."
      },
      "paused()": {
        "details": "Returns true if the contract is paused, and false otherwise."
      },
      "renounceOwnership()": {
        "details": "Leaves the contract without owner. It will not be possible to call `onlyOwner` functions anymore. Can only be called by the current owner. NOTE: Renouncing ownership will leave the contract without an owner, thereby removing any functionality that is only available to the owner."
      },
      "symbol()": {
        "details": "Returns the symbol of the token, usually a shorter version of the name."
      },
      "totalSupply()": {
        "details": "See {IERC20-totalSupply}."
      },
      "transfer(address,uint256)": {
        "details": "See {IERC20-transfer}. Requirements: - `recipient` cannot be the zero address. - the caller must have a balance of at least `amount`."
      },
      "transferFrom(address,address,uint256)": {
        "details": "See {IERC20-transferFrom}. Emits an {Approval} event indicating the updated allowance. This is not required by the EIP. See the note at the beginning of {ERC20}. Requirements: - `sender` and `recipient` cannot be the zero address. - `sender` must have a balance of at least `amount`. - the caller must have allowance for ``sender``'s tokens of at least `amount`."
      },
      "transferOwnership(address)": {
        "details": "Transfers ownership of the contract to a new account (`newOwner`). Can only be called by the current owner."
      }
    },
    "version": 1
  },
  "userdoc": {
    "kind": "user",
    "methods": {},
    "version": 1
  }
}