{
  "contractName": "TokenVesting",
  "abi": [
    {
      "inputs": [
        {
          "internalType": "address",
          "name": "token_",
          "type": "address"
        }
      ],
      "stateMutability": "nonpayable",
      "type": "constructor"
    },
    {
      "anonymous": false,
      "inputs": [
        {
          "indexed": true,
          "internalType": "address",
          "name": "previousOwner",
          "type": "address"
        },
        {
          "indexed": true,
          "internalType": "address",
          "name": "newOwner",
          "type": "address"
        }
      ],
      "name": "OwnershipTransferred",
      "type": "event"
    },
    {
      "anonymous": false,
      "inputs": [
        {
          "indexed": false,
          "internalType": "uint256",
          "name": "amount",
          "type": "uint256"
        }
      ],
      "name": "Released",
      "type": "event"
    },
    {
      "anonymous": false,
      "inputs": [],
      "name": "Revoked",
      "type": "event"
    },
    {
      "stateMutability": "payable",
      "type": "fallback"
    },
    {
      "inputs": [],
      "name": "owner",
      "outputs": [
        {
          "internalType": "address",
          "name": "",
          "type": "address"
        }
      ],
      "stateMutability": "view",
      "type": "function"
    },
    {
      "inputs": [],
      "name": "renounceOwnership",
      "outputs": [],
      "stateMutability": "nonpayable",
      "type": "function"
    },
    {
      "inputs": [
        {
          "internalType": "address",
          "name": "newOwner",
          "type": "address"
        }
      ],
      "name": "transferOwnership",
      "outputs": [],
      "stateMutability": "nonpayable",
      "type": "function"
    },
    {
      "stateMutability": "payable",
      "type": "receive"
    },
    {
      "inputs": [
        {
          "internalType": "address",
          "name": "_beneficiary",
          "type": "address"
        }
      ],
      "name": "getVestingSchedulesCountByBeneficiary",
      "outputs": [
        {
          "internalType": "uint256",
          "name": "",
          "type": "uint256"
        }
      ],
      "stateMutability": "view",
      "type": "function"
    },
    {
      "inputs": [
        {
          "internalType": "uint256",
          "name": "index",
          "type": "uint256"
        }
      ],
      "name": "getVestingIdAtIndex",
      "outputs": [
        {
          "internalType": "bytes32",
          "name": "",
          "type": "bytes32"
        }
      ],
      "stateMutability": "view",
      "type": "function"
    },
    {
      "inputs": [
        {
          "internalType": "address",
          "name": "holder",
          "type": "address"
        },
        {
          "internalType": "uint256",
          "name": "index",
          "type": "uint256"
        }
      ],
      "name": "getVestingScheduleByAddressAndIndex",
      "outputs": [
        {
          "components": [
            {
              "internalType": "bool",
              "name": "initialized",
              "type": "bool"
            },
            {
              "internalType": "address",
              "name": "beneficiary",
              "type": "address"
            },
            {
              "internalType": "uint256",
              "name": "cliff",
              "type": "uint256"
            },
            {
              "internalType": "uint256",
              "name": "start",
              "type": "uint256"
            },
            {
              "internalType": "uint256",
              "name": "duration",
              "type": "uint256"
            },
            {
              "internalType": "uint256",
              "name": "slicePeriodSeconds",
              "type": "uint256"
            },
            {
              "internalType": "bool",
              "name": "revocable",
              "type": "bool"
            },
            {
              "internalType": "uint256",
              "name": "amountTotal",
              "type": "uint256"
            },
            {
              "internalType": "uint256",
              "name": "released",
              "type": "uint256"
            },
            {
              "internalType": "bool",
              "name": "revoked",
              "type": "bool"
            }
          ],
          "internalType": "struct TokenVesting.VestingSchedule",
          "name": "",
          "type": "tuple"
        }
      ],
      "stateMutability": "view",
      "type": "function"
    },
    {
      "inputs": [],
      "name": "getVestingSchedulesTotalAmount",
      "outputs": [
        {
          "internalType": "uint256",
          "name": "",
          "type": "uint256"
        }
      ],
      "stateMutability": "view",
      "type": "function"
    },
    {
      "inputs": [],
      "name": "getToken",
      "outputs": [
        {
          "internalType": "address",
          "name": "",
          "type": "address"
        }
      ],
      "stateMutability": "view",
      "type": "function"
    },
    {
      "inputs": [
        {
          "internalType": "address",
          "name": "_beneficiary",
          "type": "address"
        },
        {
          "internalType": "uint256",
          "name": "_start",
          "type": "uint256"
        },
        {
          "internalType": "uint256",
          "name": "_cliff",
          "type": "uint256"
        },
        {
          "internalType": "uint256",
          "name": "_duration",
          "type": "uint256"
        },
        {
          "internalType": "uint256",
          "name": "_slicePeriodSeconds",
          "type": "uint256"
        },
        {
          "internalType": "bool",
          "name": "_revocable",
          "type": "bool"
        },
        {
          "internalType": "uint256",
          "name": "_amount",
          "type": "uint256"
        }
      ],
      "name": "createVestingSchedule",
      "outputs": [],
      "stateMutability": "nonpayable",
      "type": "function"
    },
    {
      "inputs": [
        {
          "internalType": "bytes32",
          "name": "vestingScheduleId",
          "type": "bytes32"
        }
      ],
      "name": "revoke",
      "outputs": [],
      "stateMutability": "nonpayable",
      "type": "function"
    },
    {
      "inputs": [
        {
          "internalType": "uint256",
          "name": "amount",
          "type": "uint256"
        }
      ],
      "name": "withdraw",
      "outputs": [],
      "stateMutability": "nonpayable",
      "type": "function"
    },
    {
      "inputs": [
        {
          "internalType": "bytes32",
          "name": "vestingScheduleId",
          "type": "bytes32"
        },
        {
          "internalType": "uint256",
          "name": "amount",
          "type": "uint256"
        }
      ],
      "name": "release",
      "outputs": [],
      "stateMutability": "nonpayable",
      "type": "function"
    },
    {
      "inputs": [],
      "name": "getVestingSchedulesCount",
      "outputs": [
        {
          "internalType": "uint256",
          "name": "",
          "type": "uint256"
        }
      ],
      "stateMutability": "view",
      "type": "function"
    },
    {
      "inputs": [
        {
          "internalType": "bytes32",
          "name": "vestingScheduleId",
          "type": "bytes32"
        }
      ],
      "name": "computeReleasableAmount",
      "outputs": [
        {
          "internalType": "uint256",
          "name": "",
          "type": "uint256"
        }
      ],
      "stateMutability": "view",
      "type": "function"
    },
    {
      "inputs": [
        {
          "internalType": "bytes32",
          "name": "vestingScheduleId",
          "type": "bytes32"
        }
      ],
      "name": "getVestingSchedule",
      "outputs": [
        {
          "components": [
            {
              "internalType": "bool",
              "name": "initialized",
              "type": "bool"
            },
            {
              "internalType": "address",
              "name": "beneficiary",
              "type": "address"
            },
            {
              "internalType": "uint256",
              "name": "cliff",
              "type": "uint256"
            },
            {
              "internalType": "uint256",
              "name": "start",
              "type": "uint256"
            },
            {
              "internalType": "uint256",
              "name": "duration",
              "type": "uint256"
            },
            {
              "internalType": "uint256",
              "name": "slicePeriodSeconds",
              "type": "uint256"
            },
            {
              "internalType": "bool",
              "name": "revocable",
              "type": "bool"
            },
            {
              "internalType": "uint256",
              "name": "amountTotal",
              "type": "uint256"
            },
            {
              "internalType": "uint256",
              "name": "released",
              "type": "uint256"
            },
            {
              "internalType": "bool",
              "name": "revoked",
              "type": "bool"
            }
          ],
          "internalType": "struct TokenVesting.VestingSchedule",
          "name": "",
          "type": "tuple"
        }
      ],
      "stateMutability": "view",
      "type": "function"
    },
    {
      "inputs": [],
      "name": "getWithdrawableAmount",
      "outputs": [
        {
          "internalType": "uint256",
          "name": "",
          "type": "uint256"
        }
      ],
      "stateMutability": "view",
      "type": "function"
    },
    {
      "inputs": [
        {
          "internalType": "address",
          "name": "holder",
          "type": "address"
        }
      ],
      "name": "computeNextVestingScheduleIdForHolder",
      "outputs": [
        {
          "internalType": "bytes32",
          "name": "",
          "type": "bytes32"
        }
      ],
      "stateMutability": "view",
      "type": "function"
    },
    {
      "inputs": [
        {
          "internalType": "address",
          "name": "holder",
          "type": "address"
        }
      ],
      "name": "getLastVestingScheduleForHolder",
      "outputs": [
        {
          "components": [
            {
              "internalType": "bool",
              "name": "initialized",
              "type": "bool"
            },
            {
              "internalType": "address",
              "name": "beneficiary",
              "type": "address"
            },
            {
              "internalType": "uint256",
              "name": "cliff",
              "type": "uint256"
            },
            {
              "internalType": "uint256",
              "name": "start",
              "type": "uint256"
            },
            {
              "internalType": "uint256",
              "name": "duration",
              "type": "uint256"
            },
            {
              "internalType": "uint256",
              "name": "slicePeriodSeconds",
              "type": "uint256"
            },
            {
              "internalType": "bool",
              "name": "revocable",
              "type": "bool"
            },
            {
              "internalType": "uint256",
              "name": "amountTotal",
              "type": "uint256"
            },
            {
              "internalType": "uint256",
              "name": "released",
              "type": "uint256"
            },
            {
              "internalType": "bool",
              "name": "revoked",
              "type": "bool"
            }
          ],
          "internalType": "struct TokenVesting.VestingSchedule",
          "name": "",
          "type": "tuple"
        }
      ],
      "stateMutability": "view",
      "type": "function"
    },
    {
      "inputs": [
        {
          "internalType": "address",
          "name": "holder",
          "type": "address"
        },
        {
          "internalType": "uint256",
          "name": "index",
          "type": "uint256"
        }
      ],
      "name": "computeVestingScheduleIdForAddressAndIndex",
      "outputs": [
        {
          "internalType": "bytes32",
          "name": "",
          "type": "bytes32"
        }
      ],
      "stateMutability": "pure",
      "type": "function"
    }
  ],
  "bytecode": "0x60a06040523480156200001157600080fd5b50604051620032ed380380620032ed83398181016040528101906200003791906200020a565b620000576200004b620000d460201b60201c565b620000dc60201b60201c565b60018081905550600073ffffffffffffffffffffffffffffffffffffffff168173ffffffffffffffffffffffffffffffffffffffff1614156200009957600080fd5b8073ffffffffffffffffffffffffffffffffffffffff1660808173ffffffffffffffffffffffffffffffffffffffff1681525050506200023c565b600033905090565b60008060009054906101000a900473ffffffffffffffffffffffffffffffffffffffff169050816000806101000a81548173ffffffffffffffffffffffffffffffffffffffff021916908373ffffffffffffffffffffffffffffffffffffffff1602179055508173ffffffffffffffffffffffffffffffffffffffff168173ffffffffffffffffffffffffffffffffffffffff167f8be0079c531659141344cd1fd0a4f28419497f9722a3daafe3b4186f6b6457e060405160405180910390a35050565b600080fd5b600073ffffffffffffffffffffffffffffffffffffffff82169050919050565b6000620001d282620001a5565b9050919050565b620001e481620001c5565b8114620001f057600080fd5b50565b6000815190506200020481620001d9565b92915050565b600060208284031215620002235762000222620001a0565b5b60006200023384828501620001f3565b91505092915050565b6080516130806200026d600039600081816109ac01528181610b5901528181610f4a01526111f201526130806000f3fe6080604052600436106101185760003560e01c80638af104da116100a0578063ea1bb3d511610064578063ea1bb3d5146103a7578063f2fde38b146103e4578063f51321d71461040d578063f7c469f01461044a578063f9079b37146104875761011f565b80638af104da146102ae5780638da5cb5b146102eb57806390be10cc146103165780639ef346b414610341578063b75c7dc61461037e5761011f565b806348deb471116100e757806348deb471146101c95780635a7bb69a146101f457806366afd8ef14610231578063715018a61461025a5780637e913dc6146102715761011f565b8063130836171461012157806317e289e91461014c57806321df0da7146101755780632e1a7d4d146101a05761011f565b3661011f57005b005b34801561012d57600080fd5b506101366104c4565b6040516101439190611f9f565b60405180910390f35b34801561015857600080fd5b50610173600480360381019061016e9190612081565b6104d1565b005b34801561018157600080fd5b5061018a6109a8565b6040516101979190612132565b60405180910390f35b3480156101ac57600080fd5b506101c760048036038101906101c2919061214d565b6109d0565b005b3480156101d557600080fd5b506101de610ba7565b6040516101eb9190611f9f565b60405180910390f35b34801561020057600080fd5b5061021b6004803603810190610216919061217a565b610bb1565b6040516102289190611f9f565b60405180910390f35b34801561023d57600080fd5b50610258600480360381019061025391906121dd565b610bfa565b005b34801561026657600080fd5b5061026f610f9f565b005b34801561027d57600080fd5b506102986004803603810190610293919061217a565b611027565b6040516102a59190612316565b60405180910390f35b3480156102ba57600080fd5b506102d560048036038101906102d09190612332565b61118c565b6040516102e29190612381565b60405180910390f35b3480156102f757600080fd5b506103006111bf565b60405161030d9190612132565b60405180910390f35b34801561032257600080fd5b5061032b6111e8565b6040516103389190611f9f565b60405180910390f35b34801561034d57600080fd5b506103686004803603810190610363919061239c565b61129d565b6040516103759190612316565b60405180910390f35b34801561038a57600080fd5b506103a560048036038101906103a0919061239c565b6113ae565b005b3480156103b357600080fd5b506103ce60048036038101906103c9919061239c565b611670565b6040516103db9190611f9f565b60405180910390f35b3480156103f057600080fd5b5061040b6004803603810190610406919061217a565b6117f3565b005b34801561041957600080fd5b50610434600480360381019061042f9190612332565b6118eb565b6040516104419190612316565b60405180910390f35b34801561045657600080fd5b50610471600480360381019061046c919061217a565b61190d565b60405161047e9190612381565b60405180910390f35b34801561049357600080fd5b506104ae60048036038101906104a9919061214d565b61195f565b6040516104bb9190612381565b60405180910390f35b6000600280549050905090565b6104d96119d0565b73ffffffffffffffffffffffffffffffffffffffff166104f76111bf565b73ffffffffffffffffffffffffffffffffffffffff161461054d576040517f08c379a000000000000000000000000000000000000000000000000000000000815260040161054490612426565b60405180910390fd5b803073ffffffffffffffffffffffffffffffffffffffff166390be10cc6040518163ffffffff1660e01b8152600401602060405180830381865afa158015610599573d6000803e3d6000fd5b505050506040513d601f19601f820116820180604052508101906105bd919061245b565b10156105fe576040517f08c379a00000000000000000000000000000000000000000000000000000000081526004016105f590612520565b60405180910390fd5b60008411610641576040517f08c379a0000000000000000000000000000000000000000000000000000000008152600401610638906125b2565b60405180910390fd5b60008111610684576040517f08c379a000000000000000000000000000000000000000000000000000000000815260040161067b9061261e565b60405180910390fd5b60018310156106c8576040517f08c379a00000000000000000000000000000000000000000000000000000000081526004016106bf906126b0565b60405180910390fd5b60003073ffffffffffffffffffffffffffffffffffffffff1663f7c469f0896040518263ffffffff1660e01b81526004016107039190612132565b602060405180830381865afa158015610720573d6000803e3d6000fd5b505050506040513d601f19601f8201168201806040525081019061074491906126e5565b9050600061075b87896119d890919063ffffffff16565b90506040518061014001604052806001151581526020018a73ffffffffffffffffffffffffffffffffffffffff168152602001828152602001898152602001878152602001868152602001851515815260200184815260200160008152602001600015158152506003600084815260200190815260200160002060008201518160000160006101000a81548160ff02191690831515021790555060208201518160000160016101000a81548173ffffffffffffffffffffffffffffffffffffffff021916908373ffffffffffffffffffffffffffffffffffffffff16021790555060408201518160010155606082015181600201556080820151816003015560a0820151816004015560c08201518160050160006101000a81548160ff02191690831515021790555060e0820151816006015561010082015181600701556101208201518160080160006101000a81548160ff0219169083151502179055509050506108d2836004546119d890919063ffffffff16565b60048190555060028290806001815401808255809150506001900390600052602060002001600090919091909150556000600560008b73ffffffffffffffffffffffffffffffffffffffff1673ffffffffffffffffffffffffffffffffffffffff1681526020019081526020016000205490506109596001826119d890919063ffffffff16565b600560008c73ffffffffffffffffffffffffffffffffffffffff1673ffffffffffffffffffffffffffffffffffffffff1681526020019081526020016000208190555050505050505050505050565b60007f0000000000000000000000000000000000000000000000000000000000000000905090565b60026001541415610a16576040517f08c379a0000000000000000000000000000000000000000000000000000000008152600401610a0d9061275e565b60405180910390fd5b6002600181905550610a266119d0565b73ffffffffffffffffffffffffffffffffffffffff16610a446111bf565b73ffffffffffffffffffffffffffffffffffffffff1614610a9a576040517f08c379a0000000000000000000000000000000000000000000000000000000008152600401610a9190612426565b60405180910390fd5b803073ffffffffffffffffffffffffffffffffffffffff166390be10cc6040518163ffffffff1660e01b8152600401602060405180830381865afa158015610ae6573d6000803e3d6000fd5b505050506040513d601f19601f82011682018060405250810190610b0a919061245b565b1015610b4b576040517f08c379a0000000000000000000000000000000000000000000000000000000008152600401610b42906127f0565b60405180910390fd5b610b9d610b566111bf565b827f000000000000000000000000000000000000000000000000000000000000000073ffffffffffffffffffffffffffffffffffffffff166119ee9092919063ffffffff16565b6001808190555050565b6000600454905090565b6000600560008373ffffffffffffffffffffffffffffffffffffffff1673ffffffffffffffffffffffffffffffffffffffff168152602001908152602001600020549050919050565b60026001541415610c40576040517f08c379a0000000000000000000000000000000000000000000000000000000008152600401610c379061275e565b60405180910390fd5b600260018190555081600115156003600083815260200190815260200160002060000160009054906101000a900460ff16151514610c7d57600080fd5b600015156003600083815260200190815260200160002060080160009054906101000a900460ff16151514610cb157600080fd5b600060036000858152602001908152602001600020905060008160000160019054906101000a900473ffffffffffffffffffffffffffffffffffffffff1673ffffffffffffffffffffffffffffffffffffffff163373ffffffffffffffffffffffffffffffffffffffff161490506000610d296111bf565b73ffffffffffffffffffffffffffffffffffffffff163373ffffffffffffffffffffffffffffffffffffffff161490508180610d625750805b610da1576040517f08c379a0000000000000000000000000000000000000000000000000000000008152600401610d98906128a8565b60405180910390fd5b6000610e9b84604051806101400160405290816000820160009054906101000a900460ff161515151581526020016000820160019054906101000a900473ffffffffffffffffffffffffffffffffffffffff1673ffffffffffffffffffffffffffffffffffffffff1673ffffffffffffffffffffffffffffffffffffffff168152602001600182015481526020016002820154815260200160038201548152602001600482015481526020016005820160009054906101000a900460ff1615151515815260200160068201548152602001600782015481526020016008820160009054906101000a900460ff161515151581525050611a74565b905085811015610ee0576040517f08c379a0000000000000000000000000000000000000000000000000000000008152600401610ed79061293a565b60405180910390fd5b610ef78685600701546119d890919063ffffffff16565b846007018190555060008460000160019054906101000a900473ffffffffffffffffffffffffffffffffffffffff169050610f3d87600454611b9c90919063ffffffff16565b600481905550610f8e81887f000000000000000000000000000000000000000000000000000000000000000073ffffffffffffffffffffffffffffffffffffffff166119ee9092919063ffffffff16565b505050505050600180819055505050565b610fa76119d0565b73ffffffffffffffffffffffffffffffffffffffff16610fc56111bf565b73ffffffffffffffffffffffffffffffffffffffff161461101b576040517f08c379a000000000000000000000000000000000000000000000000000000000815260040161101290612426565b60405180910390fd5b6110256000611bb2565b565b61102f611f17565b60036000611088846001600560008873ffffffffffffffffffffffffffffffffffffffff1673ffffffffffffffffffffffffffffffffffffffff168152602001908152602001600020546110839190612989565b61118c565b8152602001908152602001600020604051806101400160405290816000820160009054906101000a900460ff161515151581526020016000820160019054906101000a900473ffffffffffffffffffffffffffffffffffffffff1673ffffffffffffffffffffffffffffffffffffffff1673ffffffffffffffffffffffffffffffffffffffff168152602001600182015481526020016002820154815260200160038201548152602001600482015481526020016005820160009054906101000a900460ff1615151515815260200160068201548152602001600782015481526020016008820160009054906101000a900460ff1615151515815250509050919050565b600082826040516020016111a1929190612a26565b60405160208183030381529060405280519060200120905092915050565b60008060009054906101000a900473ffffffffffffffffffffffffffffffffffffffff16905090565b60006112986004547f000000000000000000000000000000000000000000000000000000000000000073ffffffffffffffffffffffffffffffffffffffff166370a08231306040518263ffffffff1660e01b81526004016112499190612132565b602060405180830381865afa158015611266573d6000803e3d6000fd5b505050506040513d601f19601f8201168201806040525081019061128a919061245b565b611b9c90919063ffffffff16565b905090565b6112a5611f17565b60036000838152602001908152602001600020604051806101400160405290816000820160009054906101000a900460ff161515151581526020016000820160019054906101000a900473ffffffffffffffffffffffffffffffffffffffff1673ffffffffffffffffffffffffffffffffffffffff1673ffffffffffffffffffffffffffffffffffffffff168152602001600182015481526020016002820154815260200160038201548152602001600482015481526020016005820160009054906101000a900460ff1615151515815260200160068201548152602001600782015481526020016008820160009054906101000a900460ff1615151515815250509050919050565b6113b66119d0565b73ffffffffffffffffffffffffffffffffffffffff166113d46111bf565b73ffffffffffffffffffffffffffffffffffffffff161461142a576040517f08c379a000000000000000000000000000000000000000000000000000000000815260040161142190612426565b60405180910390fd5b80600115156003600083815260200190815260200160002060000160009054906101000a900460ff1615151461145f57600080fd5b600015156003600083815260200190815260200160002060080160009054906101000a900460ff1615151461149357600080fd5b6000600360008481526020019081526020016000209050600115158160050160009054906101000a900460ff16151514611502576040517f08c379a00000000000000000000000000000000000000000000000000000000081526004016114f990612ac4565b60405180910390fd5b60006115fc82604051806101400160405290816000820160009054906101000a900460ff161515151581526020016000820160019054906101000a900473ffffffffffffffffffffffffffffffffffffffff1673ffffffffffffffffffffffffffffffffffffffff1673ffffffffffffffffffffffffffffffffffffffff168152602001600182015481526020016002820154815260200160038201548152602001600482015481526020016005820160009054906101000a900460ff1615151515815260200160068201548152602001600782015481526020016008820160009054906101000a900460ff161515151581525050611a74565b90506000811115611612576116118482610bfa565b5b600061162f83600701548460060154611b9c90919063ffffffff16565b905061164681600454611b9c90919063ffffffff16565b60048190555060018360080160006101000a81548160ff0219169083151502179055505050505050565b600081600115156003600083815260200190815260200160002060000160009054906101000a900460ff161515146116a757600080fd5b600015156003600083815260200190815260200160002060080160009054906101000a900460ff161515146116db57600080fd5b60006003600085815260200190815260200160002090506117ea81604051806101400160405290816000820160009054906101000a900460ff161515151581526020016000820160019054906101000a900473ffffffffffffffffffffffffffffffffffffffff1673ffffffffffffffffffffffffffffffffffffffff1673ffffffffffffffffffffffffffffffffffffffff168152602001600182015481526020016002820154815260200160038201548152602001600482015481526020016005820160009054906101000a900460ff1615151515815260200160068201548152602001600782015481526020016008820160009054906101000a900460ff161515151581525050611a74565b92505050919050565b6117fb6119d0565b73ffffffffffffffffffffffffffffffffffffffff166118196111bf565b73ffffffffffffffffffffffffffffffffffffffff161461186f576040517f08c379a000000000000000000000000000000000000000000000000000000000815260040161186690612426565b60405180910390fd5b600073ffffffffffffffffffffffffffffffffffffffff168173ffffffffffffffffffffffffffffffffffffffff1614156118df576040517f08c379a00000000000000000000000000000000000000000000000000000000081526004016118d690612b56565b60405180910390fd5b6118e881611bb2565b50565b6118f3611f17565b611905611900848461118c565b61129d565b905092915050565b600061195882600560008573ffffffffffffffffffffffffffffffffffffffff1673ffffffffffffffffffffffffffffffffffffffff1681526020019081526020016000205461118c565b9050919050565b60006119696104c4565b82106119aa576040517f08c379a00000000000000000000000000000000000000000000000000000000081526004016119a190612be8565b60405180910390fd5b600282815481106119be576119bd612c08565b5b90600052602060002001549050919050565b600033905090565b600081836119e69190612c37565b905092915050565b611a6f8363a9059cbb60e01b8484604051602401611a0d929190612c8d565b604051602081830303815290604052907bffffffffffffffffffffffffffffffffffffffffffffffffffffffff19166020820180517bffffffffffffffffffffffffffffffffffffffffffffffffffffffff8381831617835250505050611c76565b505050565b600080611a7f611d3d565b90508260400151811080611a9c5750600115158361012001511515145b15611aab576000915050611b97565b611ac6836080015184606001516119d890919063ffffffff16565b8110611af057611ae88361010001518460e00151611b9c90919063ffffffff16565b915050611b97565b6000611b09846060015183611b9c90919063ffffffff16565b905060008460a0015190506000611b298284611d4590919063ffffffff16565b90506000611b408383611d5b90919063ffffffff16565b90506000611b718860800151611b63848b60e00151611d5b90919063ffffffff16565b611d4590919063ffffffff16565b9050611b8b88610100015182611b9c90919063ffffffff16565b90508096505050505050505b919050565b60008183611baa9190612989565b905092915050565b60008060009054906101000a900473ffffffffffffffffffffffffffffffffffffffff169050816000806101000a81548173ffffffffffffffffffffffffffffffffffffffff021916908373ffffffffffffffffffffffffffffffffffffffff1602179055508173ffffffffffffffffffffffffffffffffffffffff168173ffffffffffffffffffffffffffffffffffffffff167f8be0079c531659141344cd1fd0a4f28419497f9722a3daafe3b4186f6b6457e060405160405180910390a35050565b6000611cd8826040518060400160405280602081526020017f5361666545524332303a206c6f772d6c6576656c2063616c6c206661696c65648152508573ffffffffffffffffffffffffffffffffffffffff16611d719092919063ffffffff16565b9050600081511115611d385780806020019051810190611cf89190612ccb565b611d37576040517f08c379a0000000000000000000000000000000000000000000000000000000008152600401611d2e90612d6a565b60405180910390fd5b5b505050565b600042905090565b60008183611d539190612db9565b905092915050565b60008183611d699190612dea565b905092915050565b6060611d808484600085611d89565b90509392505050565b606082471015611dce576040517f08c379a0000000000000000000000000000000000000000000000000000000008152600401611dc590612eb6565b60405180910390fd5b611dd785611e9d565b611e16576040517f08c379a0000000000000000000000000000000000000000000000000000000008152600401611e0d90612f22565b60405180910390fd5b6000808673ffffffffffffffffffffffffffffffffffffffff168587604051611e3f9190612fbc565b60006040518083038185875af1925050503d8060008114611e7c576040519150601f19603f3d011682016040523d82523d6000602084013e611e81565b606091505b5091509150611e91828286611eb0565b92505050949350505050565b600080823b905060008111915050919050565b60608315611ec057829050611f10565b600083511115611ed35782518084602001fd5b816040517f08c379a0000000000000000000000000000000000000000000000000000000008152600401611f079190613028565b60405180910390fd5b9392505050565b604051806101400160405280600015158152602001600073ffffffffffffffffffffffffffffffffffffffff1681526020016000815260200160008152602001600081526020016000815260200160001515815260200160008152602001600081526020016000151581525090565b6000819050919050565b611f9981611f86565b82525050565b6000602082019050611fb46000830184611f90565b92915050565b600080fd5b600073ffffffffffffffffffffffffffffffffffffffff82169050919050565b6000611fea82611fbf565b9050919050565b611ffa81611fdf565b811461200557600080fd5b50565b60008135905061201781611ff1565b92915050565b61202681611f86565b811461203157600080fd5b50565b6000813590506120438161201d565b92915050565b60008115159050919050565b61205e81612049565b811461206957600080fd5b50565b60008135905061207b81612055565b92915050565b600080600080600080600060e0888a0312156120a05761209f611fba565b5b60006120ae8a828b01612008565b97505060206120bf8a828b01612034565b96505060406120d08a828b01612034565b95505060606120e18a828b01612034565b94505060806120f28a828b01612034565b93505060a06121038a828b0161206c565b92505060c06121148a828b01612034565b91505092959891949750929550565b61212c81611fdf565b82525050565b60006020820190506121476000830184612123565b92915050565b60006020828403121561216357612162611fba565b5b600061217184828501612034565b91505092915050565b6000602082840312156121905761218f611fba565b5b600061219e84828501612008565b91505092915050565b6000819050919050565b6121ba816121a7565b81146121c557600080fd5b50565b6000813590506121d7816121b1565b92915050565b600080604083850312156121f4576121f3611fba565b5b6000612202858286016121c8565b925050602061221385828601612034565b9150509250929050565b61222681612049565b82525050565b61223581611fdf565b82525050565b61224481611f86565b82525050565b61014082016000820151612261600085018261221d565b506020820151612274602085018261222c565b506040820151612287604085018261223b565b50606082015161229a606085018261223b565b5060808201516122ad608085018261223b565b5060a08201516122c060a085018261223b565b5060c08201516122d360c085018261221d565b5060e08201516122e660e085018261223b565b506101008201516122fb61010085018261223b565b5061012082015161231061012085018261221d565b50505050565b60006101408201905061232c600083018461224a565b92915050565b6000806040838503121561234957612348611fba565b5b600061235785828601612008565b925050602061236885828601612034565b9150509250929050565b61237b816121a7565b82525050565b60006020820190506123966000830184612372565b92915050565b6000602082840312156123b2576123b1611fba565b5b60006123c0848285016121c8565b91505092915050565b600082825260208201905092915050565b7f4f776e61626c653a2063616c6c6572206973206e6f7420746865206f776e6572600082015250565b60006124106020836123c9565b915061241b826123da565b602082019050919050565b6000602082019050818103600083015261243f81612403565b9050919050565b6000815190506124558161201d565b92915050565b60006020828403121561247157612470611fba565b5b600061247f84828501612446565b91505092915050565b7f546f6b656e56657374696e673a2063616e6e6f7420637265617465207665737460008201527f696e67207363686564756c652062656361757365206e6f74207375666669636960208201527f656e7420746f6b656e7300000000000000000000000000000000000000000000604082015250565b600061250a604a836123c9565b915061251582612488565b606082019050919050565b60006020820190508181036000830152612539816124fd565b9050919050565b7f546f6b656e56657374696e673a206475726174696f6e206d757374206265203e60008201527f2030000000000000000000000000000000000000000000000000000000000000602082015250565b600061259c6022836123c9565b91506125a782612540565b604082019050919050565b600060208201905081810360008301526125cb8161258f565b9050919050565b7f546f6b656e56657374696e673a20616d6f756e74206d757374206265203e2030600082015250565b60006126086020836123c9565b9150612613826125d2565b602082019050919050565b60006020820190508181036000830152612637816125fb565b9050919050565b7f546f6b656e56657374696e673a20736c696365506572696f645365636f6e647360008201527f206d757374206265203e3d203100000000000000000000000000000000000000602082015250565b600061269a602d836123c9565b91506126a58261263e565b604082019050919050565b600060208201905081810360008301526126c98161268d565b9050919050565b6000815190506126df816121b1565b92915050565b6000602082840312156126fb576126fa611fba565b5b6000612709848285016126d0565b91505092915050565b7f5265656e7472616e637947756172643a207265656e7472616e742063616c6c00600082015250565b6000612748601f836123c9565b915061275382612712565b602082019050919050565b600060208201905081810360008301526127778161273b565b9050919050565b7f546f6b656e56657374696e673a206e6f7420656e6f756768207769746864726160008201527f7761626c652066756e6473000000000000000000000000000000000000000000602082015250565b60006127da602b836123c9565b91506127e58261277e565b604082019050919050565b60006020820190508181036000830152612809816127cd565b9050919050565b7f546f6b656e56657374696e673a206f6e6c792062656e6566696369617279206160008201527f6e64206f776e65722063616e2072656c656173652076657374656420746f6b6560208201527f6e73000000000000000000000000000000000000000000000000000000000000604082015250565b60006128926042836123c9565b915061289d82612810565b606082019050919050565b600060208201905081810360008301526128c181612885565b9050919050565b7f546f6b656e56657374696e673a2063616e6e6f742072656c6561736520746f6b60008201527f656e732c206e6f7420656e6f7567682076657374656420746f6b656e73000000602082015250565b6000612924603d836123c9565b915061292f826128c8565b604082019050919050565b6000602082019050818103600083015261295381612917565b9050919050565b7f4e487b7100000000000000000000000000000000000000000000000000000000600052601160045260246000fd5b600061299482611f86565b915061299f83611f86565b9250828210156129b2576129b161295a565b5b828203905092915050565b60008160601b9050919050565b60006129d5826129bd565b9050919050565b60006129e7826129ca565b9050919050565b6129ff6129fa82611fdf565b6129dc565b82525050565b6000819050919050565b612a20612a1b82611f86565b612a05565b82525050565b6000612a3282856129ee565b601482019150612a428284612a0f565b6020820191508190509392505050565b7f546f6b656e56657374696e673a2076657374696e67206973206e6f742072657660008201527f6f6361626c650000000000000000000000000000000000000000000000000000602082015250565b6000612aae6026836123c9565b9150612ab982612a52565b604082019050919050565b60006020820190508181036000830152612add81612aa1565b9050919050565b7f4f776e61626c653a206e6577206f776e657220697320746865207a65726f206160008201527f6464726573730000000000000000000000000000000000000000000000000000602082015250565b6000612b406026836123c9565b9150612b4b82612ae4565b604082019050919050565b60006020820190508181036000830152612b6f81612b33565b9050919050565b7f546f6b656e56657374696e673a20696e646578206f7574206f6620626f756e6460008201527f7300000000000000000000000000000000000000000000000000000000000000602082015250565b6000612bd26021836123c9565b9150612bdd82612b76565b604082019050919050565b60006020820190508181036000830152612c0181612bc5565b9050919050565b7f4e487b7100000000000000000000000000000000000000000000000000000000600052603260045260246000fd5b6000612c4282611f86565b9150612c4d83611f86565b9250827fffffffffffffffffffffffffffffffffffffffffffffffffffffffffffffffff03821115612c8257612c8161295a565b5b828201905092915050565b6000604082019050612ca26000830185612123565b612caf6020830184611f90565b9392505050565b600081519050612cc581612055565b92915050565b600060208284031215612ce157612ce0611fba565b5b6000612cef84828501612cb6565b91505092915050565b7f5361666545524332303a204552433230206f7065726174696f6e20646964206e60008201527f6f74207375636365656400000000000000000000000000000000000000000000602082015250565b6000612d54602a836123c9565b9150612d5f82612cf8565b604082019050919050565b60006020820190508181036000830152612d8381612d47565b9050919050565b7f4e487b7100000000000000000000000000000000000000000000000000000000600052601260045260246000fd5b6000612dc482611f86565b9150612dcf83611f86565b925082612ddf57612dde612d8a565b5b828204905092915050565b6000612df582611f86565b9150612e0083611f86565b9250817fffffffffffffffffffffffffffffffffffffffffffffffffffffffffffffffff0483118215151615612e3957612e3861295a565b5b828202905092915050565b7f416464726573733a20696e73756666696369656e742062616c616e636520666f60008201527f722063616c6c0000000000000000000000000000000000000000000000000000602082015250565b6000612ea06026836123c9565b9150612eab82612e44565b604082019050919050565b60006020820190508181036000830152612ecf81612e93565b9050919050565b7f416464726573733a2063616c6c20746f206e6f6e2d636f6e7472616374000000600082015250565b6000612f0c601d836123c9565b9150612f1782612ed6565b602082019050919050565b60006020820190508181036000830152612f3b81612eff565b9050919050565b600081519050919050565b600081905092915050565b60005b83811015612f76578082015181840152602081019050612f5b565b83811115612f85576000848401525b50505050565b6000612f9682612f42565b612fa08185612f4d565b9350612fb0818560208601612f58565b80840191505092915050565b6000612fc88284612f8b565b915081905092915050565b600081519050919050565b6000601f19601f8301169050919050565b6000612ffa82612fd3565b61300481856123c9565b9350613014818560208601612f58565b61301d81612fde565b840191505092915050565b600060208201905081810360008301526130428184612fef565b90509291505056fea26469706673582212205ed39c79e5ad4c19ecff2e9451486243272e626360c0caa2aae1addd9bcc105464736f6c634300080b0033",
  "immutableReferences": {
    "1979": [
      {
        "length": 32,
        "start": 2476
      },
      {
        "length": 32,
        "start": 2905
      },
      {
        "length": 32,
        "start": 3914
      },
      {
        "length": 32,
        "start": 4594
      }
    ]
  },
  "source": "// contracts/TokenVesting.sol\n// SPDX-License-Identifier: Apache-2.0\npragma solidity 0.8.11;\n\nimport \"@openzeppelin/contracts/token/ERC20/IERC20.sol\";\nimport \"@openzeppelin/contracts/token/ERC20/utils/SafeERC20.sol\";\nimport \"@openzeppelin/contracts/security/ReentrancyGuard.sol\";\nimport \"@openzeppelin/contracts/access/Ownable.sol\";\nimport \"@openzeppelin/contracts/utils/math/Math.sol\";\nimport \"@openzeppelin/contracts/utils/math/SafeMath.sol\";\n\n/**\n * @title TokenVesting\n */\ncontract TokenVesting is Ownable, ReentrancyGuard{\n    using SafeMath for uint256;\n    using SafeERC20 for IERC20;\n    struct VestingSchedule{\n        bool initialized;\n        // beneficiary of tokens after they are released\n        address  beneficiary;\n        // cliff period in seconds\n        uint256  cliff;\n        // start time of the vesting period\n        uint256  start;\n        // duration of the vesting period in seconds\n        uint256  duration;\n        // duration of a slice period for the vesting in seconds\n        uint256 slicePeriodSeconds;\n        // whether or not the vesting is revocable\n        bool  revocable;\n        // total amount of tokens to be released at the end of the vesting\n        uint256 amountTotal;\n        // amount of tokens released\n        uint256  released;\n        // whether or not the vesting has been revoked\n        bool revoked;\n    }\n\n    // address of the ERC20 token\n    IERC20 immutable private _token;\n\n    bytes32[] private vestingSchedulesIds;\n    mapping(bytes32 => VestingSchedule) private vestingSchedules;\n    uint256 private vestingSchedulesTotalAmount;\n    mapping(address => uint256) private holdersVestingCount;\n\n    event Released(uint256 amount);\n    event Revoked();\n\n    /**\n    * @dev Reverts if no vesting schedule matches the passed identifier.\n    */\n    modifier onlyIfVestingScheduleExists(bytes32 vestingScheduleId) {\n        require(vestingSchedules[vestingScheduleId].initialized == true);\n        _;\n    }\n\n    /**\n    * @dev Reverts if the vesting schedule does not exist or has been revoked.\n    */\n    modifier onlyIfVestingScheduleNotRevoked(bytes32 vestingScheduleId) {\n        require(vestingSchedules[vestingScheduleId].initialized == true);\n        require(vestingSchedules[vestingScheduleId].revoked == false);\n        _;\n    }\n\n    /**\n     * @dev Creates a vesting contract.\n     * @param token_ address of the ERC20 token contract\n     */\n    constructor(address token_) {\n        require(token_ != address(0x0));\n        _token = IERC20(token_);\n    }\n\n    receive() external payable {}\n\n    fallback() external payable {}\n\n    /**\n    * @dev Returns the number of vesting schedules associated to a beneficiary.\n    * @return the number of vesting schedules\n    */\n    function getVestingSchedulesCountByBeneficiary(address _beneficiary)\n    external\n    view\n    returns(uint256){\n        return holdersVestingCount[_beneficiary];\n    }\n\n    /**\n    * @dev Returns the vesting schedule id at the given index.\n    * @return the vesting id\n    */\n    function getVestingIdAtIndex(uint256 index)\n    external\n    view\n    returns(bytes32){\n        require(index < getVestingSchedulesCount(), \"TokenVesting: index out of bounds\");\n        return vestingSchedulesIds[index];\n    }\n\n    /**\n    * @notice Returns the vesting schedule information for a given holder and index.\n    * @return the vesting schedule structure information\n    */\n    function getVestingScheduleByAddressAndIndex(address holder, uint256 index)\n    external\n    view\n    returns(VestingSchedule memory){\n        return getVestingSchedule(computeVestingScheduleIdForAddressAndIndex(holder, index));\n    }\n\n\n    /**\n    * @notice Returns the total amount of vesting schedules.\n    * @return the total amount of vesting schedules\n    */\n    function getVestingSchedulesTotalAmount()\n    external\n    view\n    returns(uint256){\n        return vestingSchedulesTotalAmount;\n    }\n\n    /**\n    * @dev Returns the address of the ERC20 token managed by the vesting contract.\n    */\n    function getToken()\n    external\n    view\n    returns(address){\n        return address(_token);\n    }\n\n    /**\n    * @notice Creates a new vesting schedule for a beneficiary.\n    * @param _beneficiary address of the beneficiary to whom vested tokens are transferred\n    * @param _start start time of the vesting period\n    * @param _cliff duration in seconds of the cliff in which tokens will begin to vest\n    * @param _duration duration in seconds of the period in which the tokens will vest\n    * @param _slicePeriodSeconds duration of a slice period for the vesting in seconds\n    * @param _revocable whether the vesting is revocable or not\n    * @param _amount total amount of tokens to be released at the end of the vesting\n    */\n    function createVestingSchedule(\n        address _beneficiary,\n        uint256 _start,\n        uint256 _cliff,\n        uint256 _duration,\n        uint256 _slicePeriodSeconds,\n        bool _revocable,\n        uint256 _amount\n    )\n        public\n        onlyOwner{\n        require(\n            this.getWithdrawableAmount() >= _amount,\n            \"TokenVesting: cannot create vesting schedule because not sufficient tokens\"\n        );\n        require(_duration > 0, \"TokenVesting: duration must be > 0\");\n        require(_amount > 0, \"TokenVesting: amount must be > 0\");\n        require(_slicePeriodSeconds >= 1, \"TokenVesting: slicePeriodSeconds must be >= 1\");\n        bytes32 vestingScheduleId = this.computeNextVestingScheduleIdForHolder(_beneficiary);\n        uint256 cliff = _start.add(_cliff);\n        vestingSchedules[vestingScheduleId] = VestingSchedule(\n            true,\n            _beneficiary,\n            cliff,\n            _start,\n            _duration,\n            _slicePeriodSeconds,\n            _revocable,\n            _amount,\n            0,\n            false\n        );\n        vestingSchedulesTotalAmount = vestingSchedulesTotalAmount.add(_amount);\n        vestingSchedulesIds.push(vestingScheduleId);\n        uint256 currentVestingCount = holdersVestingCount[_beneficiary];\n        holdersVestingCount[_beneficiary] = currentVestingCount.add(1);\n    }\n\n    /**\n    * @notice Revokes the vesting schedule for given identifier.\n    * @param vestingScheduleId the vesting schedule identifier\n    */\n    function revoke(bytes32 vestingScheduleId)\n        public\n        onlyOwner\n        onlyIfVestingScheduleNotRevoked(vestingScheduleId){\n        VestingSchedule storage vestingSchedule = vestingSchedules[vestingScheduleId];\n        require(vestingSchedule.revocable == true, \"TokenVesting: vesting is not revocable\");\n        uint256 vestedAmount = _computeReleasableAmount(vestingSchedule);\n        if(vestedAmount > 0){\n            release(vestingScheduleId, vestedAmount);\n        }\n        uint256 unreleased = vestingSchedule.amountTotal.sub(vestingSchedule.released);\n        vestingSchedulesTotalAmount = vestingSchedulesTotalAmount.sub(unreleased);\n        vestingSchedule.revoked = true;\n    }\n\n    /**\n    * @notice Withdraw the specified amount if possible.\n    * @param amount the amount to withdraw\n    */\n    function withdraw(uint256 amount)\n        public\n        nonReentrant\n        onlyOwner{\n        require(this.getWithdrawableAmount() >= amount, \"TokenVesting: not enough withdrawable funds\");\n        _token.safeTransfer(owner(), amount);\n    }\n\n    /**\n    * @notice Release vested amount of tokens.\n    * @param vestingScheduleId the vesting schedule identifier\n    * @param amount the amount to release\n    */\n    function release(\n        bytes32 vestingScheduleId,\n        uint256 amount\n    )\n        public\n        nonReentrant\n        onlyIfVestingScheduleNotRevoked(vestingScheduleId){\n        VestingSchedule storage vestingSchedule = vestingSchedules[vestingScheduleId];\n        bool isBeneficiary = msg.sender == vestingSchedule.beneficiary;\n        bool isOwner = msg.sender == owner();\n        require(\n            isBeneficiary || isOwner,\n            \"TokenVesting: only beneficiary and owner can release vested tokens\"\n        );\n        uint256 vestedAmount = _computeReleasableAmount(vestingSchedule);\n        require(vestedAmount >= amount, \"TokenVesting: cannot release tokens, not enough vested tokens\");\n        vestingSchedule.released = vestingSchedule.released.add(amount);\n        address payable beneficiaryPayable = payable(vestingSchedule.beneficiary);\n        vestingSchedulesTotalAmount = vestingSchedulesTotalAmount.sub(amount);\n        _token.safeTransfer(beneficiaryPayable, amount);\n    }\n\n    /**\n    * @dev Returns the number of vesting schedules managed by this contract.\n    * @return the number of vesting schedules\n    */\n    function getVestingSchedulesCount()\n        public\n        view\n        returns(uint256){\n        return vestingSchedulesIds.length;\n    }\n\n    /**\n    * @notice Computes the vested amount of tokens for the given vesting schedule identifier.\n    * @return the vested amount\n    */\n    function computeReleasableAmount(bytes32 vestingScheduleId)\n        public\n        onlyIfVestingScheduleNotRevoked(vestingScheduleId)\n        view\n        returns(uint256){\n        VestingSchedule storage vestingSchedule = vestingSchedules[vestingScheduleId];\n        return _computeReleasableAmount(vestingSchedule);\n    }\n\n    /**\n    * @notice Returns the vesting schedule information for a given identifier.\n    * @return the vesting schedule structure information\n    */\n    function getVestingSchedule(bytes32 vestingScheduleId)\n        public\n        view\n        returns(VestingSchedule memory){\n        return vestingSchedules[vestingScheduleId];\n    }\n\n    /**\n    * @dev Returns the amount of tokens that can be withdrawn by the owner.\n    * @return the amount of tokens\n    */\n    function getWithdrawableAmount()\n        public\n        view\n        returns(uint256){\n        return _token.balanceOf(address(this)).sub(vestingSchedulesTotalAmount);\n    }\n\n    /**\n    * @dev Computes the next vesting schedule identifier for a given holder address.\n    */\n    function computeNextVestingScheduleIdForHolder(address holder)\n        public\n        view\n        returns(bytes32){\n        return computeVestingScheduleIdForAddressAndIndex(holder, holdersVestingCount[holder]);\n    }\n\n    /**\n    * @dev Returns the last vesting schedule for a given holder address.\n    */\n    function getLastVestingScheduleForHolder(address holder)\n        public\n        view\n        returns(VestingSchedule memory){\n        return vestingSchedules[computeVestingScheduleIdForAddressAndIndex(holder, holdersVestingCount[holder] - 1)];\n    }\n\n    /**\n    * @dev Computes the vesting schedule identifier for an address and an index.\n    */\n    function computeVestingScheduleIdForAddressAndIndex(address holder, uint256 index)\n        public\n        pure\n        returns(bytes32){\n        return keccak256(abi.encodePacked(holder, index));\n    }\n\n    /**\n    * @dev Computes the releasable amount of tokens for a vesting schedule.\n    * @return the amount of releasable tokens\n    */\n    function _computeReleasableAmount(VestingSchedule memory vestingSchedule)\n    internal\n    view\n    returns(uint256){\n        uint256 currentTime = getCurrentTime();\n        if ((currentTime < vestingSchedule.cliff) || vestingSchedule.revoked == true) {\n            return 0;\n        } else if (currentTime >= vestingSchedule.start.add(vestingSchedule.duration)) {\n            return vestingSchedule.amountTotal.sub(vestingSchedule.released);\n        } else {\n            uint256 timeFromStart = currentTime.sub(vestingSchedule.start);\n            uint secondsPerSlice = vestingSchedule.slicePeriodSeconds;\n            uint256 vestedSlicePeriods = timeFromStart.div(secondsPerSlice);\n            uint256 vestedSeconds = vestedSlicePeriods.mul(secondsPerSlice);\n            uint256 vestedAmount = vestingSchedule.amountTotal.mul(vestedSeconds).div(vestingSchedule.duration);\n            vestedAmount = vestedAmount.sub(vestingSchedule.released);\n            return vestedAmount;\n        }\n    }\n\n    function getCurrentTime()\n        internal\n        virtual\n        view\n        returns(uint256){\n        return block.timestamp;\n    }\n\n}",
  "sourcePath": "/Users/asmasmail/Desktop/PunchyToken/contracts/TokenVesting.sol",
  "compiler": {
    "name": "solc",
    "version": "0.8.11+commit.d7f03943.Emscripten.clang"
  },
  "schemaVersion": "3.4.4",
  "updatedAt": "2022-02-07T15:18:27.238Z",
  "devdoc": {
    "kind": "dev",
    "methods": {
      "computeNextVestingScheduleIdForHolder(address)": {
        "details": "Computes the next vesting schedule identifier for a given holder address."
      },
      "computeReleasableAmount(bytes32)": {
        "returns": {
          "_0": "the vested amount"
        }
      },
      "computeVestingScheduleIdForAddressAndIndex(address,uint256)": {
        "details": "Computes the vesting schedule identifier for an address and an index."
      },
      "constructor": {
        "details": "Creates a vesting contract.",
        "params": {
          "token_": "address of the ERC20 token contract"
        }
      },
      "createVestingSchedule(address,uint256,uint256,uint256,uint256,bool,uint256)": {
        "params": {
          "_amount": "total amount of tokens to be released at the end of the vesting",
          "_beneficiary": "address of the beneficiary to whom vested tokens are transferred",
          "_cliff": "duration in seconds of the cliff in which tokens will begin to vest",
          "_duration": "duration in seconds of the period in which the tokens will vest",
          "_revocable": "whether the vesting is revocable or not",
          "_slicePeriodSeconds": "duration of a slice period for the vesting in seconds",
          "_start": "start time of the vesting period"
        }
      },
      "getLastVestingScheduleForHolder(address)": {
        "details": "Returns the last vesting schedule for a given holder address."
      },
      "getToken()": {
        "details": "Returns the address of the ERC20 token managed by the vesting contract."
      },
      "getVestingIdAtIndex(uint256)": {
        "details": "Returns the vesting schedule id at the given index.",
        "returns": {
          "_0": "the vesting id"
        }
      },
      "getVestingSchedule(bytes32)": {
        "returns": {
          "_0": "the vesting schedule structure information"
        }
      },
      "getVestingScheduleByAddressAndIndex(address,uint256)": {
        "returns": {
          "_0": "the vesting schedule structure information"
        }
      },
      "getVestingSchedulesCount()": {
        "details": "Returns the number of vesting schedules managed by this contract.",
        "returns": {
          "_0": "the number of vesting schedules"
        }
      },
      "getVestingSchedulesCountByBeneficiary(address)": {
        "details": "Returns the number of vesting schedules associated to a beneficiary.",
        "returns": {
          "_0": "the number of vesting schedules"
        }
      },
      "getVestingSchedulesTotalAmount()": {
        "returns": {
          "_0": "the total amount of vesting schedules"
        }
      },
      "getWithdrawableAmount()": {
        "details": "Returns the amount of tokens that can be withdrawn by the owner.",
        "returns": {
          "_0": "the amount of tokens"
        }
      },
      "owner()": {
        "details": "Returns the address of the current owner."
      },
      "release(bytes32,uint256)": {
        "params": {
          "amount": "the amount to release",
          "vestingScheduleId": "the vesting schedule identifier"
        }
      },
      "renounceOwnership()": {
        "details": "Leaves the contract without owner. It will not be possible to call `onlyOwner` functions anymore. Can only be called by the current owner. NOTE: Renouncing ownership will leave the contract without an owner, thereby removing any functionality that is only available to the owner."
      },
      "revoke(bytes32)": {
        "params": {
          "vestingScheduleId": "the vesting schedule identifier"
        }
      },
      "transferOwnership(address)": {
        "details": "Transfers ownership of the contract to a new account (`newOwner`). Can only be called by the current owner."
      },
      "withdraw(uint256)": {
        "params": {
          "amount": "the amount to withdraw"
        }
      }
    },
    "title": "TokenVesting",
    "version": 1
  },
  "userdoc": {
    "kind": "user",
    "methods": {
      "computeReleasableAmount(bytes32)": {
        "notice": "Computes the vested amount of tokens for the given vesting schedule identifier."
      },
      "createVestingSchedule(address,uint256,uint256,uint256,uint256,bool,uint256)": {
        "notice": "Creates a new vesting schedule for a beneficiary."
      },
      "getVestingSchedule(bytes32)": {
        "notice": "Returns the vesting schedule information for a given identifier."
      },
      "getVestingScheduleByAddressAndIndex(address,uint256)": {
        "notice": "Returns the vesting schedule information for a given holder and index."
      },
      "getVestingSchedulesTotalAmount()": {
        "notice": "Returns the total amount of vesting schedules."
      },
      "release(bytes32,uint256)": {
        "notice": "Release vested amount of tokens."
      },
      "revoke(bytes32)": {
        "notice": "Revokes the vesting schedule for given identifier."
      },
      "withdraw(uint256)": {
        "notice": "Withdraw the specified amount if possible."
      }
    },
    "version": 1
  }
}