{
  "contractName": "TokenTimelock",
  "abi": [
    {
      "inputs": [
        {
          "internalType": "contract IERC20",
          "name": "token_",
          "type": "address"
        },
        {
          "internalType": "address",
          "name": "beneficiary_",
          "type": "address"
        },
        {
          "internalType": "uint256",
          "name": "releaseTime_",
          "type": "uint256"
        }
      ],
      "stateMutability": "nonpayable",
      "type": "constructor"
    },
    {
      "inputs": [],
      "name": "token",
      "outputs": [
        {
          "internalType": "contract IERC20",
          "name": "",
          "type": "address"
        }
      ],
      "stateMutability": "view",
      "type": "function"
    },
    {
      "inputs": [],
      "name": "beneficiary",
      "outputs": [
        {
          "internalType": "address",
          "name": "",
          "type": "address"
        }
      ],
      "stateMutability": "view",
      "type": "function"
    },
    {
      "inputs": [],
      "name": "releaseTime",
      "outputs": [
        {
          "internalType": "uint256",
          "name": "",
          "type": "uint256"
        }
      ],
      "stateMutability": "view",
      "type": "function"
    },
    {
      "inputs": [],
      "name": "release",
      "outputs": [],
      "stateMutability": "nonpayable",
      "type": "function"
    }
  ],
  "bytecode": "0x60806040523480156200001157600080fd5b5060405162000ea138038062000ea18339818101604052810190620000379190620001f7565b4281116200007c576040517f08c379a00000000000000000000000000000000000000000000000000000000081526004016200007390620002da565b60405180910390fd5b826000806101000a81548173ffffffffffffffffffffffffffffffffffffffff021916908373ffffffffffffffffffffffffffffffffffffffff16021790555081600160006101000a81548173ffffffffffffffffffffffffffffffffffffffff021916908373ffffffffffffffffffffffffffffffffffffffff16021790555080600281905550505050620002fc565b600080fd5b600073ffffffffffffffffffffffffffffffffffffffff82169050919050565b60006200013f8262000112565b9050919050565b6000620001538262000132565b9050919050565b620001658162000146565b81146200017157600080fd5b50565b60008151905062000185816200015a565b92915050565b620001968162000132565b8114620001a257600080fd5b50565b600081519050620001b6816200018b565b92915050565b6000819050919050565b620001d181620001bc565b8114620001dd57600080fd5b50565b600081519050620001f181620001c6565b92915050565b6000806000606084860312156200021357620002126200010d565b5b6000620002238682870162000174565b93505060206200023686828701620001a5565b92505060406200024986828701620001e0565b9150509250925092565b600082825260208201905092915050565b7f546f6b656e54696d656c6f636b3a2072656c656173652074696d65206973206260008201527f65666f72652063757272656e742074696d650000000000000000000000000000602082015250565b6000620002c260328362000253565b9150620002cf8262000264565b604082019050919050565b60006020820190508181036000830152620002f581620002b3565b9050919050565b610b95806200030c6000396000f3fe608060405234801561001057600080fd5b506004361061004c5760003560e01c806338af3eed1461005157806386d1a69f1461006f578063b91d400114610079578063fc0c546a14610097575b600080fd5b6100596100b5565b60405161006691906105dd565b60405180910390f35b6100776100df565b005b610081610276565b60405161008e9190610611565b60405180910390f35b61009f610280565b6040516100ac919061068b565b60405180910390f35b6000600160009054906101000a900473ffffffffffffffffffffffffffffffffffffffff16905090565b600254421015610124576040517f08c379a000000000000000000000000000000000000000000000000000000000815260040161011b90610729565b60405180910390fd5b60008060009054906101000a900473ffffffffffffffffffffffffffffffffffffffff1673ffffffffffffffffffffffffffffffffffffffff166370a08231306040518263ffffffff1660e01b815260040161018091906105dd565b602060405180830381865afa15801561019d573d6000803e3d6000fd5b505050506040513d601f19601f820116820180604052508101906101c1919061077a565b905060008111610206576040517f08c379a00000000000000000000000000000000000000000000000000000000081526004016101fd90610819565b60405180910390fd5b610273600160009054906101000a900473ffffffffffffffffffffffffffffffffffffffff168260008054906101000a900473ffffffffffffffffffffffffffffffffffffffff1673ffffffffffffffffffffffffffffffffffffffff166102a99092919063ffffffff16565b50565b6000600254905090565b60008060009054906101000a900473ffffffffffffffffffffffffffffffffffffffff16905090565b61032a8363a9059cbb60e01b84846040516024016102c8929190610839565b604051602081830303815290604052907bffffffffffffffffffffffffffffffffffffffffffffffffffffffff19166020820180517bffffffffffffffffffffffffffffffffffffffffffffffffffffffff838183161783525050505061032f565b505050565b6000610391826040518060400160405280602081526020017f5361666545524332303a206c6f772d6c6576656c2063616c6c206661696c65648152508573ffffffffffffffffffffffffffffffffffffffff166103f69092919063ffffffff16565b90506000815111156103f157808060200190518101906103b1919061089a565b6103f0576040517f08c379a00000000000000000000000000000000000000000000000000000000081526004016103e790610939565b60405180910390fd5b5b505050565b6060610405848460008561040e565b90509392505050565b606082471015610453576040517f08c379a000000000000000000000000000000000000000000000000000000000815260040161044a906109cb565b60405180910390fd5b61045c85610522565b61049b576040517f08c379a000000000000000000000000000000000000000000000000000000000815260040161049290610a37565b60405180910390fd5b6000808673ffffffffffffffffffffffffffffffffffffffff1685876040516104c49190610ad1565b60006040518083038185875af1925050503d8060008114610501576040519150601f19603f3d011682016040523d82523d6000602084013e610506565b606091505b5091509150610516828286610535565b92505050949350505050565b600080823b905060008111915050919050565b6060831561054557829050610595565b6000835111156105585782518084602001fd5b816040517f08c379a000000000000000000000000000000000000000000000000000000000815260040161058c9190610b3d565b60405180910390fd5b9392505050565b600073ffffffffffffffffffffffffffffffffffffffff82169050919050565b60006105c78261059c565b9050919050565b6105d7816105bc565b82525050565b60006020820190506105f260008301846105ce565b92915050565b6000819050919050565b61060b816105f8565b82525050565b60006020820190506106266000830184610602565b92915050565b6000819050919050565b600061065161064c6106478461059c565b61062c565b61059c565b9050919050565b600061066382610636565b9050919050565b600061067582610658565b9050919050565b6106858161066a565b82525050565b60006020820190506106a0600083018461067c565b92915050565b600082825260208201905092915050565b7f546f6b656e54696d656c6f636b3a2063757272656e742074696d65206973206260008201527f65666f72652072656c656173652074696d650000000000000000000000000000602082015250565b60006107136032836106a6565b915061071e826106b7565b604082019050919050565b6000602082019050818103600083015261074281610706565b9050919050565b600080fd5b610757816105f8565b811461076257600080fd5b50565b6000815190506107748161074e565b92915050565b6000602082840312156107905761078f610749565b5b600061079e84828501610765565b91505092915050565b7f546f6b656e54696d656c6f636b3a206e6f20746f6b656e7320746f2072656c6560008201527f6173650000000000000000000000000000000000000000000000000000000000602082015250565b60006108036023836106a6565b915061080e826107a7565b604082019050919050565b60006020820190508181036000830152610832816107f6565b9050919050565b600060408201905061084e60008301856105ce565b61085b6020830184610602565b9392505050565b60008115159050919050565b61087781610862565b811461088257600080fd5b50565b6000815190506108948161086e565b92915050565b6000602082840312156108b0576108af610749565b5b60006108be84828501610885565b91505092915050565b7f5361666545524332303a204552433230206f7065726174696f6e20646964206e60008201527f6f74207375636365656400000000000000000000000000000000000000000000602082015250565b6000610923602a836106a6565b915061092e826108c7565b604082019050919050565b6000602082019050818103600083015261095281610916565b9050919050565b7f416464726573733a20696e73756666696369656e742062616c616e636520666f60008201527f722063616c6c0000000000000000000000000000000000000000000000000000602082015250565b60006109b56026836106a6565b91506109c082610959565b604082019050919050565b600060208201905081810360008301526109e4816109a8565b9050919050565b7f416464726573733a2063616c6c20746f206e6f6e2d636f6e7472616374000000600082015250565b6000610a21601d836106a6565b9150610a2c826109eb565b602082019050919050565b60006020820190508181036000830152610a5081610a14565b9050919050565b600081519050919050565b600081905092915050565b60005b83811015610a8b578082015181840152602081019050610a70565b83811115610a9a576000848401525b50505050565b6000610aab82610a57565b610ab58185610a62565b9350610ac5818560208601610a6d565b80840191505092915050565b6000610add8284610aa0565b915081905092915050565b600081519050919050565b6000601f19601f8301169050919050565b6000610b0f82610ae8565b610b1981856106a6565b9350610b29818560208601610a6d565b610b3281610af3565b840191505092915050565b60006020820190508181036000830152610b578184610b04565b90509291505056fea264697066735822122063586305b5737281b0cd8e854a40316da02dba35aa5c9647d1423ebafaf6c95864736f6c634300080b0033",
  "immutableReferences": {},
  "source": "// SPDX-License-Identifier: Apache-2.0\npragma solidity ^0.8.2;\n\nimport \"@openzeppelin/contracts/token/ERC20/utils/SafeERC20.sol\";\n\n/**\n * @dev A token holder contract that will allow a beneficiary to extract the\n * tokens after a given release time.\n *\n * Useful for simple vesting schedules like \"advisors get all of their tokens\n * after 1 year\".\n *\n * For a more complete vesting schedule, see {TokenVesting}.\n */\ncontract TokenTimelock {\n    using SafeERC20 for IERC20;\n\n    // ERC20 basic token contract being held\n    IERC20 private _token;\n\n    // beneficiary of tokens after they are released\n    address private _beneficiary;\n\n    // timestamp when token release is enabled\n    uint256 private _releaseTime;\n\n    constructor (IERC20 token_, address beneficiary_, uint256 releaseTime_)  {\n        // solhint-disable-next-line not-rely-on-time\n        require(releaseTime_ > block.timestamp, \"TokenTimelock: release time is before current time\");\n        _token = token_;\n        _beneficiary = beneficiary_;\n        _releaseTime = releaseTime_;\n    }\n\n    /**\n     * @return the token being held.\n     */\n    function token() public view returns (IERC20) {\n        return _token;\n    }\n\n    /**\n     * @return the beneficiary of the tokens.\n     */\n    function beneficiary() public view returns (address) {\n        return _beneficiary;\n    }\n\n    /**\n     * @return the time when the tokens are released.\n     */\n    function releaseTime() public view returns (uint256) {\n        return _releaseTime;\n    }\n\n    /**\n     * @notice Transfers tokens held by timelock to beneficiary.\n     */\n    function release() public {\n        // solhint-disable-next-line not-rely-on-time\n        require(block.timestamp >= _releaseTime, \"TokenTimelock: current time is before release time\");\n\n        uint256 amount = _token.balanceOf(address(this));\n        require(amount > 0, \"TokenTimelock: no tokens to release\");\n\n        _token.safeTransfer(_beneficiary, amount);\n    }\n}",
  "sourcePath": "/Users/asmasmail/Desktop/PunchyToken/contracts/TokenTimeLock.sol",
  "compiler": {
    "name": "solc",
    "version": "0.8.11+commit.d7f03943.Emscripten.clang"
  },
  "schemaVersion": "3.4.4",
  "updatedAt": "2022-02-09T08:30:39.912Z",
  "devdoc": {
    "details": "A token holder contract that will allow a beneficiary to extract the tokens after a given release time. Useful for simple vesting schedules like \"advisors get all of their tokens after 1 year\". For a more complete vesting schedule, see {TokenVesting}.",
    "kind": "dev",
    "methods": {
      "beneficiary()": {
        "returns": {
          "_0": "the beneficiary of the tokens."
        }
      },
      "releaseTime()": {
        "returns": {
          "_0": "the time when the tokens are released."
        }
      },
      "token()": {
        "returns": {
          "_0": "the token being held."
        }
      }
    },
    "version": 1
  },
  "userdoc": {
    "kind": "user",
    "methods": {
      "release()": {
        "notice": "Transfers tokens held by timelock to beneficiary."
      }
    },
    "version": 1
  }
}